{
  "abi": [
    {
      "inputs": [
        {
          "internalType": "uint256",
          "name": "minimum",
          "type": "uint256"
        },
        {
          "internalType": "address",
          "name": "creator",
          "type": "address"
        }
      ],
      "stateMutability": "nonpayable",
      "type": "constructor"
    },
    {
      "inputs": [
        {
          "internalType": "uint256",
          "name": "index",
          "type": "uint256"
        }
      ],
      "name": "approveRequest",
      "outputs": [],
      "stateMutability": "nonpayable",
      "type": "function"
    },
    {
      "inputs": [
        {
          "internalType": "address",
          "name": "",
          "type": "address"
        }
      ],
      "name": "approvers",
      "outputs": [
        {
          "internalType": "bool",
          "name": "",
          "type": "bool"
        }
      ],
      "stateMutability": "view",
      "type": "function"
    },
    {
      "inputs": [],
      "name": "contribute",
      "outputs": [],
      "stateMutability": "payable",
      "type": "function"
    },
    {
      "inputs": [
        {
          "internalType": "string",
          "name": "description",
          "type": "string"
        },
        {
          "internalType": "uint256",
          "name": "value",
          "type": "uint256"
        },
        {
          "internalType": "address",
          "name": "receipient",
          "type": "address"
        }
      ],
      "name": "createRequest",
      "outputs": [],
      "stateMutability": "nonpayable",
      "type": "function"
    },
    {
      "inputs": [
        {
          "internalType": "uint256",
          "name": "index",
          "type": "uint256"
        }
      ],
      "name": "finalizeRequest",
      "outputs": [],
      "stateMutability": "nonpayable",
      "type": "function"
    },
    {
      "inputs": [],
      "name": "manager",
      "outputs": [
        {
          "internalType": "address",
          "name": "",
          "type": "address"
        }
      ],
      "stateMutability": "view",
      "type": "function"
    },
    {
      "inputs": [],
      "name": "minimumContribution",
      "outputs": [
        {
          "internalType": "uint256",
          "name": "",
          "type": "uint256"
        }
      ],
      "stateMutability": "view",
      "type": "function"
    },
    {
      "inputs": [
        {
          "internalType": "uint256",
          "name": "",
          "type": "uint256"
        }
      ],
      "name": "requests",
      "outputs": [
        {
          "internalType": "string",
          "name": "description",
          "type": "string"
        },
        {
          "internalType": "uint256",
          "name": "value",
          "type": "uint256"
        },
        {
          "internalType": "address",
          "name": "receipient",
          "type": "address"
        },
        {
          "internalType": "bool",
          "name": "complete",
          "type": "bool"
        },
        {
          "internalType": "uint256",
          "name": "approvalCount",
          "type": "uint256"
        }
      ],
      "stateMutability": "view",
      "type": "function"
    }
  ],
  "devdoc": {
    "kind": "dev",
    "methods": {},
    "version": 1
  },
  "evm": {
    "assembly": "    /* \"Campaign.sol\":433:2235  contract Campaign{... */\n  mstore(0x40, 0x80)\n    /* \"Campaign.sol\":950:1114  constructor(uint minimum, address creator){... */\n  callvalue\n  dup1\n  iszero\n  tag_1\n  jumpi\n  0x00\n  dup1\n  revert\ntag_1:\n  pop\n  mload(0x40)\n  sub(codesize, bytecodeSize)\n  dup1\n  bytecodeSize\n  dup4\n  codecopy\n  dup2\n  dup2\n  add\n  0x40\n  mstore\n  dup2\n  add\n  swap1\n  tag_2\n  swap2\n  swap1\n  tag_3\n  jump\t// in\ntag_2:\n    /* \"Campaign.sol\":1012:1019  creator */\n  dup1\n    /* \"Campaign.sol\":1002:1009  manager */\n  0x02\n  0x00\n    /* \"Campaign.sol\":1002:1019  manager = creator */\n  0x0100\n  exp\n  dup2\n  sload\n  dup2\n  0xffffffffffffffffffffffffffffffffffffffff\n  mul\n  not\n  and\n  swap1\n  dup4\n  0xffffffffffffffffffffffffffffffffffffffff\n  and\n  mul\n  or\n  swap1\n  sstore\n  pop\n    /* \"Campaign.sol\":1051:1058  minimum */\n  dup2\n    /* \"Campaign.sol\":1029:1048  minimumContribution */\n  0x03\n    /* \"Campaign.sol\":1029:1058  minimumContribution = minimum */\n  dup2\n  swap1\n  sstore\n  pop\n    /* \"Campaign.sol\":1080:1081  0 */\n  0x00\n    /* \"Campaign.sol\":1068:1079  numRequests */\n  0x01\n    /* \"Campaign.sol\":1068:1081  numRequests=0 */\n  dup2\n  swap1\n  sstore\n  pop\n    /* \"Campaign.sol\":1106:1107  0 */\n  0x00\n    /* \"Campaign.sol\":1091:1105  approversCount */\n  0x05\n    /* \"Campaign.sol\":1091:1107  approversCount=0 */\n  dup2\n  swap1\n  sstore\n  pop\n    /* \"Campaign.sol\":950:1114  constructor(uint minimum, address creator){... */\n  pop\n  pop\n    /* \"Campaign.sol\":433:2235  contract Campaign{... */\n  jump(tag_6)\n    /* \"#utility.yul\":88:205   */\ntag_8:\n    /* \"#utility.yul\":197:198   */\n  0x00\n    /* \"#utility.yul\":194:195   */\n  dup1\n    /* \"#utility.yul\":187:199   */\n  revert\n    /* \"#utility.yul\":334:411   */\ntag_10:\n    /* \"#utility.yul\":371:378   */\n  0x00\n    /* \"#utility.yul\":400:405   */\n  dup2\n    /* \"#utility.yul\":389:405   */\n  swap1\n  pop\n    /* \"#utility.yul\":334:411   */\n  swap2\n  swap1\n  pop\n  jump\t// out\n    /* \"#utility.yul\":417:539   */\ntag_11:\n    /* \"#utility.yul\":490:514   */\n  tag_23\n    /* \"#utility.yul\":508:513   */\n  dup2\n    /* \"#utility.yul\":490:514   */\n  tag_10\n  jump\t// in\ntag_23:\n    /* \"#utility.yul\":483:488   */\n  dup2\n    /* \"#utility.yul\":480:515   */\n  eq\n    /* \"#utility.yul\":470:533   */\n  tag_24\n  jumpi\n    /* \"#utility.yul\":529:530   */\n  0x00\n    /* \"#utility.yul\":526:527   */\n  dup1\n    /* \"#utility.yul\":519:531   */\n  revert\n    /* \"#utility.yul\":470:533   */\ntag_24:\n    /* \"#utility.yul\":417:539   */\n  pop\n  jump\t// out\n    /* \"#utility.yul\":545:688   */\ntag_12:\n    /* \"#utility.yul\":602:607   */\n  0x00\n    /* \"#utility.yul\":633:639   */\n  dup2\n    /* \"#utility.yul\":627:640   */\n  mload\n    /* \"#utility.yul\":618:640   */\n  swap1\n  pop\n    /* \"#utility.yul\":649:682   */\n  tag_26\n    /* \"#utility.yul\":676:681   */\n  dup2\n    /* \"#utility.yul\":649:682   */\n  tag_11\n  jump\t// in\ntag_26:\n    /* \"#utility.yul\":545:688   */\n  swap3\n  swap2\n  pop\n  pop\n  jump\t// out\n    /* \"#utility.yul\":694:820   */\ntag_13:\n    /* \"#utility.yul\":731:738   */\n  0x00\n    /* \"#utility.yul\":771:813   */\n  0xffffffffffffffffffffffffffffffffffffffff\n    /* \"#utility.yul\":764:769   */\n  dup3\n    /* \"#utility.yul\":760:814   */\n  and\n    /* \"#utility.yul\":749:814   */\n  swap1\n  pop\n    /* \"#utility.yul\":694:820   */\n  swap2\n  swap1\n  pop\n  jump\t// out\n    /* \"#utility.yul\":826:922   */\ntag_14:\n    /* \"#utility.yul\":863:870   */\n  0x00\n    /* \"#utility.yul\":892:916   */\n  tag_29\n    /* \"#utility.yul\":910:915   */\n  dup3\n    /* \"#utility.yul\":892:916   */\n  tag_13\n  jump\t// in\ntag_29:\n    /* \"#utility.yul\":881:916   */\n  swap1\n  pop\n    /* \"#utility.yul\":826:922   */\n  swap2\n  swap1\n  pop\n  jump\t// out\n    /* \"#utility.yul\":928:1050   */\ntag_15:\n    /* \"#utility.yul\":1001:1025   */\n  tag_31\n    /* \"#utility.yul\":1019:1024   */\n  dup2\n    /* \"#utility.yul\":1001:1025   */\n  tag_14\n  jump\t// in\ntag_31:\n    /* \"#utility.yul\":994:999   */\n  dup2\n    /* \"#utility.yul\":991:1026   */\n  eq\n    /* \"#utility.yul\":981:1044   */\n  tag_32\n  jumpi\n    /* \"#utility.yul\":1040:1041   */\n  0x00\n    /* \"#utility.yul\":1037:1038   */\n  dup1\n    /* \"#utility.yul\":1030:1042   */\n  revert\n    /* \"#utility.yul\":981:1044   */\ntag_32:\n    /* \"#utility.yul\":928:1050   */\n  pop\n  jump\t// out\n    /* \"#utility.yul\":1056:1199   */\ntag_16:\n    /* \"#utility.yul\":1113:1118   */\n  0x00\n    /* \"#utility.yul\":1144:1150   */\n  dup2\n    /* \"#utility.yul\":1138:1151   */\n  mload\n    /* \"#utility.yul\":1129:1151   */\n  swap1\n  pop\n    /* \"#utility.yul\":1160:1193   */\n  tag_34\n    /* \"#utility.yul\":1187:1192   */\n  dup2\n    /* \"#utility.yul\":1160:1193   */\n  tag_15\n  jump\t// in\ntag_34:\n    /* \"#utility.yul\":1056:1199   */\n  swap3\n  swap2\n  pop\n  pop\n  jump\t// out\n    /* \"#utility.yul\":1205:1712   */\ntag_3:\n    /* \"#utility.yul\":1284:1290   */\n  0x00\n    /* \"#utility.yul\":1292:1298   */\n  dup1\n    /* \"#utility.yul\":1341:1343   */\n  0x40\n    /* \"#utility.yul\":1329:1338   */\n  dup4\n    /* \"#utility.yul\":1320:1327   */\n  dup6\n    /* \"#utility.yul\":1316:1339   */\n  sub\n    /* \"#utility.yul\":1312:1344   */\n  slt\n    /* \"#utility.yul\":1309:1428   */\n  iszero\n  tag_36\n  jumpi\n    /* \"#utility.yul\":1347:1426   */\n  tag_37\n  tag_8\n  jump\t// in\ntag_37:\n    /* \"#utility.yul\":1309:1428   */\ntag_36:\n    /* \"#utility.yul\":1467:1468   */\n  0x00\n    /* \"#utility.yul\":1492:1556   */\n  tag_38\n    /* \"#utility.yul\":1548:1555   */\n  dup6\n    /* \"#utility.yul\":1539:1545   */\n  dup3\n    /* \"#utility.yul\":1528:1537   */\n  dup7\n    /* \"#utility.yul\":1524:1546   */\n  add\n    /* \"#utility.yul\":1492:1556   */\n  tag_12\n  jump\t// in\ntag_38:\n    /* \"#utility.yul\":1482:1556   */\n  swap3\n  pop\n    /* \"#utility.yul\":1438:1566   */\n  pop\n    /* \"#utility.yul\":1605:1607   */\n  0x20\n    /* \"#utility.yul\":1631:1695   */\n  tag_39\n    /* \"#utility.yul\":1687:1694   */\n  dup6\n    /* \"#utility.yul\":1678:1684   */\n  dup3\n    /* \"#utility.yul\":1667:1676   */\n  dup7\n    /* \"#utility.yul\":1663:1685   */\n  add\n    /* \"#utility.yul\":1631:1695   */\n  tag_16\n  jump\t// in\ntag_39:\n    /* \"#utility.yul\":1621:1695   */\n  swap2\n  pop\n    /* \"#utility.yul\":1576:1705   */\n  pop\n    /* \"#utility.yul\":1205:1712   */\n  swap3\n  pop\n  swap3\n  swap1\n  pop\n  jump\t// out\n    /* \"Campaign.sol\":433:2235  contract Campaign{... */\ntag_6:\n  dataSize(sub_0)\n  dup1\n  dataOffset(sub_0)\n  0x00\n  codecopy\n  0x00\n  return\nstop\n\nsub_0: assembly {\n        /* \"Campaign.sol\":433:2235  contract Campaign{... */\n      mstore(0x40, 0x80)\n      jumpi(tag_1, lt(calldatasize, 0x04))\n      shr(0xe0, calldataload(0x00))\n      dup1\n      0x8a9cfd55\n      gt\n      tag_10\n      jumpi\n      dup1\n      0x8a9cfd55\n      eq\n      tag_6\n      jumpi\n      dup1\n      0x937e09b1\n      eq\n      tag_7\n      jumpi\n      dup1\n      0xd7bb99ba\n      eq\n      tag_8\n      jumpi\n      dup1\n      0xd7d1bbdb\n      eq\n      tag_9\n      jumpi\n      jump(tag_1)\n    tag_10:\n      dup1\n      0x03441006\n      eq\n      tag_2\n      jumpi\n      dup1\n      0x0a144391\n      eq\n      tag_3\n      jumpi\n      dup1\n      0x481c6a75\n      eq\n      tag_4\n      jumpi\n      dup1\n      0x81d12c58\n      eq\n      tag_5\n      jumpi\n    tag_1:\n      0x00\n      dup1\n      revert\n        /* \"Campaign.sol\":1931:2233  function finalizeRequest(uint index)public restricted{... */\n    tag_2:\n      callvalue\n      dup1\n      iszero\n      tag_11\n      jumpi\n      0x00\n      dup1\n      revert\n    tag_11:\n      pop\n      tag_12\n      0x04\n      dup1\n      calldatasize\n      sub\n      dup2\n      add\n      swap1\n      tag_13\n      swap2\n      swap1\n      tag_14\n      jump\t// in\n    tag_13:\n      tag_15\n      jump\t// in\n    tag_12:\n      stop\n        /* \"Campaign.sol\":788:829  mapping(address => bool) public approvers */\n    tag_3:\n      callvalue\n      dup1\n      iszero\n      tag_16\n      jumpi\n      0x00\n      dup1\n      revert\n    tag_16:\n      pop\n      tag_17\n      0x04\n      dup1\n      calldatasize\n      sub\n      dup2\n      add\n      swap1\n      tag_18\n      swap2\n      swap1\n      tag_19\n      jump\t// in\n    tag_18:\n      tag_20\n      jump\t// in\n    tag_17:\n      mload(0x40)\n      tag_21\n      swap2\n      swap1\n      tag_22\n      jump\t// in\n    tag_21:\n      mload(0x40)\n      dup1\n      swap2\n      sub\n      swap1\n      return\n        /* \"Campaign.sol\":723:745  address public manager */\n    tag_4:\n      callvalue\n      dup1\n      iszero\n      tag_23\n      jumpi\n      0x00\n      dup1\n      revert\n    tag_23:\n      pop\n      tag_24\n      tag_25\n      jump\t// in\n    tag_24:\n      mload(0x40)\n      tag_26\n      swap2\n      swap1\n      tag_27\n      jump\t// in\n    tag_26:\n      mload(0x40)\n      dup1\n      swap2\n      sub\n      swap1\n      return\n        /* \"Campaign.sol\":654:695  mapping (uint => Request) public requests */\n    tag_5:\n      callvalue\n      dup1\n      iszero\n      tag_28\n      jumpi\n      0x00\n      dup1\n      revert\n    tag_28:\n      pop\n      tag_29\n      0x04\n      dup1\n      calldatasize\n      sub\n      dup2\n      add\n      swap1\n      tag_30\n      swap2\n      swap1\n      tag_14\n      jump\t// in\n    tag_30:\n      tag_31\n      jump\t// in\n    tag_29:\n      mload(0x40)\n      tag_32\n      swap6\n      swap5\n      swap4\n      swap3\n      swap2\n      swap1\n      tag_33\n      jump\t// in\n    tag_32:\n      mload(0x40)\n      dup1\n      swap2\n      sub\n      swap1\n      return\n        /* \"Campaign.sol\":1282:1651  function createRequest(string memory  description, uint value, address receipient) restricted public {... */\n    tag_6:\n      callvalue\n      dup1\n      iszero\n      tag_34\n      jumpi\n      0x00\n      dup1\n      revert\n    tag_34:\n      pop\n      tag_35\n      0x04\n      dup1\n      calldatasize\n      sub\n      dup2\n      add\n      swap1\n      tag_36\n      swap2\n      swap1\n      tag_37\n      jump\t// in\n    tag_36:\n      tag_38\n      jump\t// in\n    tag_35:\n      stop\n        /* \"Campaign.sol\":751:782  uint public minimumContribution */\n    tag_7:\n      callvalue\n      dup1\n      iszero\n      tag_39\n      jumpi\n      0x00\n      dup1\n      revert\n    tag_39:\n      pop\n      tag_40\n      tag_41\n      jump\t// in\n    tag_40:\n      mload(0x40)\n      tag_42\n      swap2\n      swap1\n      tag_43\n      jump\t// in\n    tag_42:\n      mload(0x40)\n      dup1\n      swap2\n      sub\n      swap1\n      return\n        /* \"Campaign.sol\":1120:1276  function contribute()public payable{... */\n    tag_8:\n      tag_44\n      tag_45\n      jump\t// in\n    tag_44:\n      stop\n        /* \"Campaign.sol\":1657:1925  function approveRequest(uint index) public{... */\n    tag_9:\n      callvalue\n      dup1\n      iszero\n      tag_46\n      jumpi\n      0x00\n      dup1\n      revert\n    tag_46:\n      pop\n      tag_47\n      0x04\n      dup1\n      calldatasize\n      sub\n      dup2\n      add\n      swap1\n      tag_48\n      swap2\n      swap1\n      tag_14\n      jump\t// in\n    tag_48:\n      tag_49\n      jump\t// in\n    tag_47:\n      stop\n        /* \"Campaign.sol\":1931:2233  function finalizeRequest(uint index)public restricted{... */\n    tag_15:\n        /* \"Campaign.sol\":914:921  manager */\n      0x02\n      0x00\n      swap1\n      sload\n      swap1\n      0x0100\n      exp\n      swap1\n      div\n      0xffffffffffffffffffffffffffffffffffffffff\n      and\n        /* \"Campaign.sol\":900:921  msg.sender == manager */\n      0xffffffffffffffffffffffffffffffffffffffff\n      and\n        /* \"Campaign.sol\":900:910  msg.sender */\n      caller\n        /* \"Campaign.sol\":900:921  msg.sender == manager */\n      0xffffffffffffffffffffffffffffffffffffffff\n      and\n      eq\n        /* \"Campaign.sol\":892:922  require(msg.sender == manager) */\n      tag_51\n      jumpi\n      0x00\n      dup1\n      revert\n    tag_51:\n        /* \"Campaign.sol\":1994:2017  Request storage request */\n      0x00\n        /* \"Campaign.sol\":2020:2028  requests */\n      dup1\n        /* \"Campaign.sol\":2020:2035  requests[index] */\n      0x00\n        /* \"Campaign.sol\":2029:2034  index */\n      dup4\n        /* \"Campaign.sol\":2020:2035  requests[index] */\n      dup2\n      mstore\n      0x20\n      add\n      swap1\n      dup2\n      mstore\n      0x20\n      add\n      0x00\n      keccak256\n        /* \"Campaign.sol\":1994:2035  Request storage request = requests[index] */\n      swap1\n      pop\n        /* \"Campaign.sol\":2093:2094  2 */\n      0x02\n        /* \"Campaign.sol\":2078:2092  approversCount */\n      sload(0x05)\n        /* \"Campaign.sol\":2078:2094  approversCount/2 */\n      tag_53\n      swap2\n      swap1\n      tag_54\n      jump\t// in\n    tag_53:\n        /* \"Campaign.sol\":2053:2060  request */\n      dup2\n        /* \"Campaign.sol\":2053:2074  request.approvalCount */\n      0x03\n      add\n      sload\n        /* \"Campaign.sol\":2053:2095  request.approvalCount > (approversCount/2) */\n      gt\n        /* \"Campaign.sol\":2045:2096  require(request.approvalCount > (approversCount/2)) */\n      tag_55\n      jumpi\n      0x00\n      dup1\n      revert\n    tag_55:\n        /* \"Campaign.sol\":2115:2122  request */\n      dup1\n        /* \"Campaign.sol\":2115:2131  request.complete */\n      0x02\n      add\n      0x14\n      swap1\n      sload\n      swap1\n      0x0100\n      exp\n      swap1\n      div\n      0xff\n      and\n        /* \"Campaign.sol\":2114:2131  !request.complete */\n      iszero\n        /* \"Campaign.sol\":2106:2132  require(!request.complete) */\n      tag_56\n      jumpi\n      0x00\n      dup1\n      revert\n    tag_56:\n        /* \"Campaign.sol\":2150:2157  request */\n      dup1\n        /* \"Campaign.sol\":2150:2168  request.receipient */\n      0x02\n      add\n      0x00\n      swap1\n      sload\n      swap1\n      0x0100\n      exp\n      swap1\n      div\n      0xffffffffffffffffffffffffffffffffffffffff\n      and\n        /* \"Campaign.sol\":2142:2178  payable(request.receipient).transfer */\n      0xffffffffffffffffffffffffffffffffffffffff\n      and\n        /* \"Campaign.sol\":2142:2193  payable(request.receipient).transfer(request.value) */\n      0x08fc\n        /* \"Campaign.sol\":2179:2186  request */\n      dup3\n        /* \"Campaign.sol\":2179:2192  request.value */\n      0x01\n      add\n      sload\n        /* \"Campaign.sol\":2142:2193  payable(request.receipient).transfer(request.value) */\n      swap1\n      dup2\n      iszero\n      mul\n      swap1\n      mload(0x40)\n      0x00\n      mload(0x40)\n      dup1\n      dup4\n      sub\n      dup2\n      dup6\n      dup9\n      dup9\n      call\n      swap4\n      pop\n      pop\n      pop\n      pop\n      iszero\n      dup1\n      iszero\n      tag_58\n      jumpi\n      returndatasize\n      0x00\n      dup1\n      returndatacopy\n      revert(0x00, returndatasize)\n    tag_58:\n      pop\n        /* \"Campaign.sol\":2222:2226  true */\n      0x01\n        /* \"Campaign.sol\":2203:2210  request */\n      dup2\n        /* \"Campaign.sol\":2203:2219  request.complete */\n      0x02\n      add\n      0x14\n        /* \"Campaign.sol\":2203:2226  request.complete = true */\n      0x0100\n      exp\n      dup2\n      sload\n      dup2\n      0xff\n      mul\n      not\n      and\n      swap1\n      dup4\n      iszero\n      iszero\n      mul\n      or\n      swap1\n      sstore\n      pop\n        /* \"Campaign.sol\":1984:2233  {... */\n      pop\n        /* \"Campaign.sol\":1931:2233  function finalizeRequest(uint index)public restricted{... */\n      pop\n      jump\t// out\n        /* \"Campaign.sol\":788:829  mapping(address => bool) public approvers */\n    tag_20:\n      mstore(0x20, 0x04)\n      dup1\n      0x00\n      mstore\n      keccak256(0x00, 0x40)\n      0x00\n      swap2\n      pop\n      sload\n      swap1\n      0x0100\n      exp\n      swap1\n      div\n      0xff\n      and\n      dup2\n      jump\t// out\n        /* \"Campaign.sol\":723:745  address public manager */\n    tag_25:\n      0x02\n      0x00\n      swap1\n      sload\n      swap1\n      0x0100\n      exp\n      swap1\n      div\n      0xffffffffffffffffffffffffffffffffffffffff\n      and\n      dup2\n      jump\t// out\n        /* \"Campaign.sol\":654:695  mapping (uint => Request) public requests */\n    tag_31:\n      mstore(0x20, 0x00)\n      dup1\n      0x00\n      mstore\n      keccak256(0x00, 0x40)\n      0x00\n      swap2\n      pop\n      swap1\n      pop\n      dup1\n      0x00\n      add\n      dup1\n      sload\n      tag_59\n      swap1\n      tag_60\n      jump\t// in\n    tag_59:\n      dup1\n      0x1f\n      add\n      0x20\n      dup1\n      swap2\n      div\n      mul\n      0x20\n      add\n      mload(0x40)\n      swap1\n      dup2\n      add\n      0x40\n      mstore\n      dup1\n      swap3\n      swap2\n      swap1\n      dup2\n      dup2\n      mstore\n      0x20\n      add\n      dup3\n      dup1\n      sload\n      tag_61\n      swap1\n      tag_60\n      jump\t// in\n    tag_61:\n      dup1\n      iszero\n      tag_62\n      jumpi\n      dup1\n      0x1f\n      lt\n      tag_63\n      jumpi\n      0x0100\n      dup1\n      dup4\n      sload\n      div\n      mul\n      dup4\n      mstore\n      swap2\n      0x20\n      add\n      swap2\n      jump(tag_62)\n    tag_63:\n      dup3\n      add\n      swap2\n      swap1\n      0x00\n      mstore\n      keccak256(0x00, 0x20)\n      swap1\n    tag_64:\n      dup2\n      sload\n      dup2\n      mstore\n      swap1\n      0x01\n      add\n      swap1\n      0x20\n      add\n      dup1\n      dup4\n      gt\n      tag_64\n      jumpi\n      dup3\n      swap1\n      sub\n      0x1f\n      and\n      dup3\n      add\n      swap2\n    tag_62:\n      pop\n      pop\n      pop\n      pop\n      pop\n      swap1\n      dup1\n      0x01\n      add\n      sload\n      swap1\n      dup1\n      0x02\n      add\n      0x00\n      swap1\n      sload\n      swap1\n      0x0100\n      exp\n      swap1\n      div\n      0xffffffffffffffffffffffffffffffffffffffff\n      and\n      swap1\n      dup1\n      0x02\n      add\n      0x14\n      swap1\n      sload\n      swap1\n      0x0100\n      exp\n      swap1\n      div\n      0xff\n      and\n      swap1\n      dup1\n      0x03\n      add\n      sload\n      swap1\n      pop\n      dup6\n      jump\t// out\n        /* \"Campaign.sol\":1282:1651  function createRequest(string memory  description, uint value, address receipient) restricted public {... */\n    tag_38:\n        /* \"Campaign.sol\":914:921  manager */\n      0x02\n      0x00\n      swap1\n      sload\n      swap1\n      0x0100\n      exp\n      swap1\n      div\n      0xffffffffffffffffffffffffffffffffffffffff\n      and\n        /* \"Campaign.sol\":900:921  msg.sender == manager */\n      0xffffffffffffffffffffffffffffffffffffffff\n      and\n        /* \"Campaign.sol\":900:910  msg.sender */\n      caller\n        /* \"Campaign.sol\":900:921  msg.sender == manager */\n      0xffffffffffffffffffffffffffffffffffffffff\n      and\n      eq\n        /* \"Campaign.sol\":892:922  require(msg.sender == manager) */\n      tag_66\n      jumpi\n      0x00\n      dup1\n      revert\n    tag_66:\n        /* \"Campaign.sol\":1393:1419  Request storage newRequest */\n      0x00\n        /* \"Campaign.sol\":1422:1430  requests */\n      dup1\n        /* \"Campaign.sol\":1422:1445  requests[numRequests++] */\n      0x00\n        /* \"Campaign.sol\":1431:1442  numRequests */\n      0x01\n      0x00\n        /* \"Campaign.sol\":1431:1444  numRequests++ */\n      dup2\n      sload\n      dup1\n      swap3\n      swap2\n      swap1\n      tag_68\n      swap1\n      tag_69\n      jump\t// in\n    tag_68:\n      swap2\n      swap1\n      pop\n      sstore\n        /* \"Campaign.sol\":1422:1445  requests[numRequests++] */\n      dup2\n      mstore\n      0x20\n      add\n      swap1\n      dup2\n      mstore\n      0x20\n      add\n      0x00\n      keccak256\n        /* \"Campaign.sol\":1393:1445  Request storage newRequest = requests[numRequests++] */\n      swap1\n      pop\n        /* \"Campaign.sol\":1480:1491  description */\n      dup4\n        /* \"Campaign.sol\":1455:1465  newRequest */\n      dup2\n        /* \"Campaign.sol\":1455:1477  newRequest.description */\n      0x00\n      add\n        /* \"Campaign.sol\":1455:1491  newRequest.description = description */\n      swap1\n      dup2\n      tag_70\n      swap2\n      swap1\n      tag_71\n      jump\t// in\n    tag_70:\n      pop\n        /* \"Campaign.sol\":1520:1525  value */\n      dup3\n        /* \"Campaign.sol\":1501:1511  newRequest */\n      dup2\n        /* \"Campaign.sol\":1501:1517  newRequest.value */\n      0x01\n      add\n        /* \"Campaign.sol\":1501:1525  newRequest.value = value */\n      dup2\n      swap1\n      sstore\n      pop\n        /* \"Campaign.sol\":1559:1569  receipient */\n      dup2\n        /* \"Campaign.sol\":1535:1545  newRequest */\n      dup2\n        /* \"Campaign.sol\":1535:1556  newRequest.receipient */\n      0x02\n      add\n      0x00\n        /* \"Campaign.sol\":1535:1569  newRequest.receipient = receipient */\n      0x0100\n      exp\n      dup2\n      sload\n      dup2\n      0xffffffffffffffffffffffffffffffffffffffff\n      mul\n      not\n      and\n      swap1\n      dup4\n      0xffffffffffffffffffffffffffffffffffffffff\n      and\n      mul\n      or\n      swap1\n      sstore\n      pop\n        /* \"Campaign.sol\":1601:1606  false */\n      0x00\n        /* \"Campaign.sol\":1579:1589  newRequest */\n      dup2\n        /* \"Campaign.sol\":1579:1598  newRequest.complete */\n      0x02\n      add\n      0x14\n        /* \"Campaign.sol\":1579:1606  newRequest.complete = false */\n      0x0100\n      exp\n      dup2\n      sload\n      dup2\n      0xff\n      mul\n      not\n      and\n      swap1\n      dup4\n      iszero\n      iszero\n      mul\n      or\n      swap1\n      sstore\n      pop\n        /* \"Campaign.sol\":1643:1644  0 */\n      0x00\n        /* \"Campaign.sol\":1616:1626  newRequest */\n      dup2\n        /* \"Campaign.sol\":1616:1640  newRequest.approvalCount */\n      0x03\n      add\n        /* \"Campaign.sol\":1616:1644  newRequest.approvalCount = 0 */\n      dup2\n      swap1\n      sstore\n      pop\n        /* \"Campaign.sol\":1383:1651  {... */\n      pop\n        /* \"Campaign.sol\":1282:1651  function createRequest(string memory  description, uint value, address receipient) restricted public {... */\n      pop\n      pop\n      pop\n      jump\t// out\n        /* \"Campaign.sol\":751:782  uint public minimumContribution */\n    tag_41:\n      sload(0x03)\n      dup2\n      jump\t// out\n        /* \"Campaign.sol\":1120:1276  function contribute()public payable{... */\n    tag_45:\n        /* \"Campaign.sol\":1185:1204  minimumContribution */\n      sload(0x03)\n        /* \"Campaign.sol\":1173:1182  msg.value */\n      callvalue\n        /* \"Campaign.sol\":1173:1204  msg.value > minimumContribution */\n      gt\n        /* \"Campaign.sol\":1165:1205  require(msg.value > minimumContribution) */\n      tag_73\n      jumpi\n      0x00\n      dup1\n      revert\n    tag_73:\n        /* \"Campaign.sol\":1239:1243  true */\n      0x01\n        /* \"Campaign.sol\":1215:1224  approvers */\n      0x04\n        /* \"Campaign.sol\":1215:1236  approvers[msg.sender] */\n      0x00\n        /* \"Campaign.sol\":1225:1235  msg.sender */\n      caller\n        /* \"Campaign.sol\":1215:1236  approvers[msg.sender] */\n      0xffffffffffffffffffffffffffffffffffffffff\n      and\n      0xffffffffffffffffffffffffffffffffffffffff\n      and\n      dup2\n      mstore\n      0x20\n      add\n      swap1\n      dup2\n      mstore\n      0x20\n      add\n      0x00\n      keccak256\n      0x00\n        /* \"Campaign.sol\":1215:1243  approvers[msg.sender] = true */\n      0x0100\n      exp\n      dup2\n      sload\n      dup2\n      0xff\n      mul\n      not\n      and\n      swap1\n      dup4\n      iszero\n      iszero\n      mul\n      or\n      swap1\n      sstore\n      pop\n        /* \"Campaign.sol\":1253:1267  approversCount */\n      0x05\n      0x00\n        /* \"Campaign.sol\":1253:1269  approversCount++ */\n      dup2\n      sload\n      dup1\n      swap3\n      swap2\n      swap1\n      tag_74\n      swap1\n      tag_69\n      jump\t// in\n    tag_74:\n      swap2\n      swap1\n      pop\n      sstore\n      pop\n        /* \"Campaign.sol\":1120:1276  function contribute()public payable{... */\n      jump\t// out\n        /* \"Campaign.sol\":1657:1925  function approveRequest(uint index) public{... */\n    tag_49:\n        /* \"Campaign.sol\":1709:1732  Request storage request */\n      0x00\n        /* \"Campaign.sol\":1735:1743  requests */\n      dup1\n        /* \"Campaign.sol\":1735:1750  requests[index] */\n      0x00\n        /* \"Campaign.sol\":1744:1749  index */\n      dup4\n        /* \"Campaign.sol\":1735:1750  requests[index] */\n      dup2\n      mstore\n      0x20\n      add\n      swap1\n      dup2\n      mstore\n      0x20\n      add\n      0x00\n      keccak256\n        /* \"Campaign.sol\":1709:1750  Request storage request = requests[index] */\n      swap1\n      pop\n        /* \"Campaign.sol\":1768:1777  approvers */\n      0x04\n        /* \"Campaign.sol\":1768:1789  approvers[msg.sender] */\n      0x00\n        /* \"Campaign.sol\":1778:1788  msg.sender */\n      caller\n        /* \"Campaign.sol\":1768:1789  approvers[msg.sender] */\n      0xffffffffffffffffffffffffffffffffffffffff\n      and\n      0xffffffffffffffffffffffffffffffffffffffff\n      and\n      dup2\n      mstore\n      0x20\n      add\n      swap1\n      dup2\n      mstore\n      0x20\n      add\n      0x00\n      keccak256\n      0x00\n      swap1\n      sload\n      swap1\n      0x0100\n      exp\n      swap1\n      div\n      0xff\n      and\n        /* \"Campaign.sol\":1760:1790  require(approvers[msg.sender]) */\n      tag_76\n      jumpi\n      0x00\n      dup1\n      revert\n    tag_76:\n        /* \"Campaign.sol\":1809:1816  request */\n      dup1\n        /* \"Campaign.sol\":1809:1826  request.approvals */\n      0x04\n      add\n        /* \"Campaign.sol\":1809:1838  request.approvals[msg.sender] */\n      0x00\n        /* \"Campaign.sol\":1827:1837  msg.sender */\n      caller\n        /* \"Campaign.sol\":1809:1838  request.approvals[msg.sender] */\n      0xffffffffffffffffffffffffffffffffffffffff\n      and\n      0xffffffffffffffffffffffffffffffffffffffff\n      and\n      dup2\n      mstore\n      0x20\n      add\n      swap1\n      dup2\n      mstore\n      0x20\n      add\n      0x00\n      keccak256\n      0x00\n      swap1\n      sload\n      swap1\n      0x0100\n      exp\n      swap1\n      div\n      0xff\n      and\n        /* \"Campaign.sol\":1808:1838  !request.approvals[msg.sender] */\n      iszero\n        /* \"Campaign.sol\":1800:1839  require(!request.approvals[msg.sender]) */\n      tag_77\n      jumpi\n      0x00\n      dup1\n      revert\n    tag_77:\n        /* \"Campaign.sol\":1881:1885  true */\n      0x01\n        /* \"Campaign.sol\":1849:1856  request */\n      dup2\n        /* \"Campaign.sol\":1849:1866  request.approvals */\n      0x04\n      add\n        /* \"Campaign.sol\":1849:1878  request.approvals[msg.sender] */\n      0x00\n        /* \"Campaign.sol\":1867:1877  msg.sender */\n      caller\n        /* \"Campaign.sol\":1849:1878  request.approvals[msg.sender] */\n      0xffffffffffffffffffffffffffffffffffffffff\n      and\n      0xffffffffffffffffffffffffffffffffffffffff\n      and\n      dup2\n      mstore\n      0x20\n      add\n      swap1\n      dup2\n      mstore\n      0x20\n      add\n      0x00\n      keccak256\n      0x00\n        /* \"Campaign.sol\":1849:1885  request.approvals[msg.sender] = true */\n      0x0100\n      exp\n      dup2\n      sload\n      dup2\n      0xff\n      mul\n      not\n      and\n      swap1\n      dup4\n      iszero\n      iszero\n      mul\n      or\n      swap1\n      sstore\n      pop\n        /* \"Campaign.sol\":1895:1902  request */\n      dup1\n        /* \"Campaign.sol\":1895:1916  request.approvalCount */\n      0x03\n      add\n      0x00\n        /* \"Campaign.sol\":1895:1918  request.approvalCount++ */\n      dup2\n      sload\n      dup1\n      swap3\n      swap2\n      swap1\n      tag_78\n      swap1\n      tag_69\n      jump\t// in\n    tag_78:\n      swap2\n      swap1\n      pop\n      sstore\n      pop\n        /* \"Campaign.sol\":1699:1925  {... */\n      pop\n        /* \"Campaign.sol\":1657:1925  function approveRequest(uint index) public{... */\n      pop\n      jump\t// out\n        /* \"#utility.yul\":7:82   */\n    tag_79:\n        /* \"#utility.yul\":40:46   */\n      0x00\n        /* \"#utility.yul\":73:75   */\n      0x40\n        /* \"#utility.yul\":67:76   */\n      mload\n        /* \"#utility.yul\":57:76   */\n      swap1\n      pop\n        /* \"#utility.yul\":7:82   */\n      swap1\n      jump\t// out\n        /* \"#utility.yul\":88:205   */\n    tag_80:\n        /* \"#utility.yul\":197:198   */\n      0x00\n        /* \"#utility.yul\":194:195   */\n      dup1\n        /* \"#utility.yul\":187:199   */\n      revert\n        /* \"#utility.yul\":211:328   */\n    tag_81:\n        /* \"#utility.yul\":320:321   */\n      0x00\n        /* \"#utility.yul\":317:318   */\n      dup1\n        /* \"#utility.yul\":310:322   */\n      revert\n        /* \"#utility.yul\":334:411   */\n    tag_82:\n        /* \"#utility.yul\":371:378   */\n      0x00\n        /* \"#utility.yul\":400:405   */\n      dup2\n        /* \"#utility.yul\":389:405   */\n      swap1\n      pop\n        /* \"#utility.yul\":334:411   */\n      swap2\n      swap1\n      pop\n      jump\t// out\n        /* \"#utility.yul\":417:539   */\n    tag_83:\n        /* \"#utility.yul\":490:514   */\n      tag_131\n        /* \"#utility.yul\":508:513   */\n      dup2\n        /* \"#utility.yul\":490:514   */\n      tag_82\n      jump\t// in\n    tag_131:\n        /* \"#utility.yul\":483:488   */\n      dup2\n        /* \"#utility.yul\":480:515   */\n      eq\n        /* \"#utility.yul\":470:533   */\n      tag_132\n      jumpi\n        /* \"#utility.yul\":529:530   */\n      0x00\n        /* \"#utility.yul\":526:527   */\n      dup1\n        /* \"#utility.yul\":519:531   */\n      revert\n        /* \"#utility.yul\":470:533   */\n    tag_132:\n        /* \"#utility.yul\":417:539   */\n      pop\n      jump\t// out\n        /* \"#utility.yul\":545:684   */\n    tag_84:\n        /* \"#utility.yul\":591:596   */\n      0x00\n        /* \"#utility.yul\":629:635   */\n      dup2\n        /* \"#utility.yul\":616:636   */\n      calldataload\n        /* \"#utility.yul\":607:636   */\n      swap1\n      pop\n        /* \"#utility.yul\":645:678   */\n      tag_134\n        /* \"#utility.yul\":672:677   */\n      dup2\n        /* \"#utility.yul\":645:678   */\n      tag_83\n      jump\t// in\n    tag_134:\n        /* \"#utility.yul\":545:684   */\n      swap3\n      swap2\n      pop\n      pop\n      jump\t// out\n        /* \"#utility.yul\":690:1019   */\n    tag_14:\n        /* \"#utility.yul\":749:755   */\n      0x00\n        /* \"#utility.yul\":798:800   */\n      0x20\n        /* \"#utility.yul\":786:795   */\n      dup3\n        /* \"#utility.yul\":777:784   */\n      dup5\n        /* \"#utility.yul\":773:796   */\n      sub\n        /* \"#utility.yul\":769:801   */\n      slt\n        /* \"#utility.yul\":766:885   */\n      iszero\n      tag_136\n      jumpi\n        /* \"#utility.yul\":804:883   */\n      tag_137\n      tag_80\n      jump\t// in\n    tag_137:\n        /* \"#utility.yul\":766:885   */\n    tag_136:\n        /* \"#utility.yul\":924:925   */\n      0x00\n        /* \"#utility.yul\":949:1002   */\n      tag_138\n        /* \"#utility.yul\":994:1001   */\n      dup5\n        /* \"#utility.yul\":985:991   */\n      dup3\n        /* \"#utility.yul\":974:983   */\n      dup6\n        /* \"#utility.yul\":970:992   */\n      add\n        /* \"#utility.yul\":949:1002   */\n      tag_84\n      jump\t// in\n    tag_138:\n        /* \"#utility.yul\":939:1002   */\n      swap2\n      pop\n        /* \"#utility.yul\":895:1012   */\n      pop\n        /* \"#utility.yul\":690:1019   */\n      swap3\n      swap2\n      pop\n      pop\n      jump\t// out\n        /* \"#utility.yul\":1025:1151   */\n    tag_85:\n        /* \"#utility.yul\":1062:1069   */\n      0x00\n        /* \"#utility.yul\":1102:1144   */\n      0xffffffffffffffffffffffffffffffffffffffff\n        /* \"#utility.yul\":1095:1100   */\n      dup3\n        /* \"#utility.yul\":1091:1145   */\n      and\n        /* \"#utility.yul\":1080:1145   */\n      swap1\n      pop\n        /* \"#utility.yul\":1025:1151   */\n      swap2\n      swap1\n      pop\n      jump\t// out\n        /* \"#utility.yul\":1157:1253   */\n    tag_86:\n        /* \"#utility.yul\":1194:1201   */\n      0x00\n        /* \"#utility.yul\":1223:1247   */\n      tag_141\n        /* \"#utility.yul\":1241:1246   */\n      dup3\n        /* \"#utility.yul\":1223:1247   */\n      tag_85\n      jump\t// in\n    tag_141:\n        /* \"#utility.yul\":1212:1247   */\n      swap1\n      pop\n        /* \"#utility.yul\":1157:1253   */\n      swap2\n      swap1\n      pop\n      jump\t// out\n        /* \"#utility.yul\":1259:1381   */\n    tag_87:\n        /* \"#utility.yul\":1332:1356   */\n      tag_143\n        /* \"#utility.yul\":1350:1355   */\n      dup2\n        /* \"#utility.yul\":1332:1356   */\n      tag_86\n      jump\t// in\n    tag_143:\n        /* \"#utility.yul\":1325:1330   */\n      dup2\n        /* \"#utility.yul\":1322:1357   */\n      eq\n        /* \"#utility.yul\":1312:1375   */\n      tag_144\n      jumpi\n        /* \"#utility.yul\":1371:1372   */\n      0x00\n        /* \"#utility.yul\":1368:1369   */\n      dup1\n        /* \"#utility.yul\":1361:1373   */\n      revert\n        /* \"#utility.yul\":1312:1375   */\n    tag_144:\n        /* \"#utility.yul\":1259:1381   */\n      pop\n      jump\t// out\n        /* \"#utility.yul\":1387:1526   */\n    tag_88:\n        /* \"#utility.yul\":1433:1438   */\n      0x00\n        /* \"#utility.yul\":1471:1477   */\n      dup2\n        /* \"#utility.yul\":1458:1478   */\n      calldataload\n        /* \"#utility.yul\":1449:1478   */\n      swap1\n      pop\n        /* \"#utility.yul\":1487:1520   */\n      tag_146\n        /* \"#utility.yul\":1514:1519   */\n      dup2\n        /* \"#utility.yul\":1487:1520   */\n      tag_87\n      jump\t// in\n    tag_146:\n        /* \"#utility.yul\":1387:1526   */\n      swap3\n      swap2\n      pop\n      pop\n      jump\t// out\n        /* \"#utility.yul\":1532:1861   */\n    tag_19:\n        /* \"#utility.yul\":1591:1597   */\n      0x00\n        /* \"#utility.yul\":1640:1642   */\n      0x20\n        /* \"#utility.yul\":1628:1637   */\n      dup3\n        /* \"#utility.yul\":1619:1626   */\n      dup5\n        /* \"#utility.yul\":1615:1638   */\n      sub\n        /* \"#utility.yul\":1611:1643   */\n      slt\n        /* \"#utility.yul\":1608:1727   */\n      iszero\n      tag_148\n      jumpi\n        /* \"#utility.yul\":1646:1725   */\n      tag_149\n      tag_80\n      jump\t// in\n    tag_149:\n        /* \"#utility.yul\":1608:1727   */\n    tag_148:\n        /* \"#utility.yul\":1766:1767   */\n      0x00\n        /* \"#utility.yul\":1791:1844   */\n      tag_150\n        /* \"#utility.yul\":1836:1843   */\n      dup5\n        /* \"#utility.yul\":1827:1833   */\n      dup3\n        /* \"#utility.yul\":1816:1825   */\n      dup6\n        /* \"#utility.yul\":1812:1834   */\n      add\n        /* \"#utility.yul\":1791:1844   */\n      tag_88\n      jump\t// in\n    tag_150:\n        /* \"#utility.yul\":1781:1844   */\n      swap2\n      pop\n        /* \"#utility.yul\":1737:1854   */\n      pop\n        /* \"#utility.yul\":1532:1861   */\n      swap3\n      swap2\n      pop\n      pop\n      jump\t// out\n        /* \"#utility.yul\":1867:1957   */\n    tag_89:\n        /* \"#utility.yul\":1901:1908   */\n      0x00\n        /* \"#utility.yul\":1944:1949   */\n      dup2\n        /* \"#utility.yul\":1937:1950   */\n      iszero\n        /* \"#utility.yul\":1930:1951   */\n      iszero\n        /* \"#utility.yul\":1919:1951   */\n      swap1\n      pop\n        /* \"#utility.yul\":1867:1957   */\n      swap2\n      swap1\n      pop\n      jump\t// out\n        /* \"#utility.yul\":1963:2072   */\n    tag_90:\n        /* \"#utility.yul\":2044:2065   */\n      tag_153\n        /* \"#utility.yul\":2059:2064   */\n      dup2\n        /* \"#utility.yul\":2044:2065   */\n      tag_89\n      jump\t// in\n    tag_153:\n        /* \"#utility.yul\":2039:2042   */\n      dup3\n        /* \"#utility.yul\":2032:2066   */\n      mstore\n        /* \"#utility.yul\":1963:2072   */\n      pop\n      pop\n      jump\t// out\n        /* \"#utility.yul\":2078:2288   */\n    tag_22:\n        /* \"#utility.yul\":2165:2169   */\n      0x00\n        /* \"#utility.yul\":2203:2205   */\n      0x20\n        /* \"#utility.yul\":2192:2201   */\n      dup3\n        /* \"#utility.yul\":2188:2206   */\n      add\n        /* \"#utility.yul\":2180:2206   */\n      swap1\n      pop\n        /* \"#utility.yul\":2216:2281   */\n      tag_155\n        /* \"#utility.yul\":2278:2279   */\n      0x00\n        /* \"#utility.yul\":2267:2276   */\n      dup4\n        /* \"#utility.yul\":2263:2280   */\n      add\n        /* \"#utility.yul\":2254:2260   */\n      dup5\n        /* \"#utility.yul\":2216:2281   */\n      tag_90\n      jump\t// in\n    tag_155:\n        /* \"#utility.yul\":2078:2288   */\n      swap3\n      swap2\n      pop\n      pop\n      jump\t// out\n        /* \"#utility.yul\":2294:2412   */\n    tag_91:\n        /* \"#utility.yul\":2381:2405   */\n      tag_157\n        /* \"#utility.yul\":2399:2404   */\n      dup2\n        /* \"#utility.yul\":2381:2405   */\n      tag_86\n      jump\t// in\n    tag_157:\n        /* \"#utility.yul\":2376:2379   */\n      dup3\n        /* \"#utility.yul\":2369:2406   */\n      mstore\n        /* \"#utility.yul\":2294:2412   */\n      pop\n      pop\n      jump\t// out\n        /* \"#utility.yul\":2418:2640   */\n    tag_27:\n        /* \"#utility.yul\":2511:2515   */\n      0x00\n        /* \"#utility.yul\":2549:2551   */\n      0x20\n        /* \"#utility.yul\":2538:2547   */\n      dup3\n        /* \"#utility.yul\":2534:2552   */\n      add\n        /* \"#utility.yul\":2526:2552   */\n      swap1\n      pop\n        /* \"#utility.yul\":2562:2633   */\n      tag_159\n        /* \"#utility.yul\":2630:2631   */\n      0x00\n        /* \"#utility.yul\":2619:2628   */\n      dup4\n        /* \"#utility.yul\":2615:2632   */\n      add\n        /* \"#utility.yul\":2606:2612   */\n      dup5\n        /* \"#utility.yul\":2562:2633   */\n      tag_91\n      jump\t// in\n    tag_159:\n        /* \"#utility.yul\":2418:2640   */\n      swap3\n      swap2\n      pop\n      pop\n      jump\t// out\n        /* \"#utility.yul\":2646:2745   */\n    tag_92:\n        /* \"#utility.yul\":2698:2704   */\n      0x00\n        /* \"#utility.yul\":2732:2737   */\n      dup2\n        /* \"#utility.yul\":2726:2738   */\n      mload\n        /* \"#utility.yul\":2716:2738   */\n      swap1\n      pop\n        /* \"#utility.yul\":2646:2745   */\n      swap2\n      swap1\n      pop\n      jump\t// out\n        /* \"#utility.yul\":2751:2920   */\n    tag_93:\n        /* \"#utility.yul\":2835:2846   */\n      0x00\n        /* \"#utility.yul\":2869:2875   */\n      dup3\n        /* \"#utility.yul\":2864:2867   */\n      dup3\n        /* \"#utility.yul\":2857:2876   */\n      mstore\n        /* \"#utility.yul\":2909:2913   */\n      0x20\n        /* \"#utility.yul\":2904:2907   */\n      dup3\n        /* \"#utility.yul\":2900:2914   */\n      add\n        /* \"#utility.yul\":2885:2914   */\n      swap1\n      pop\n        /* \"#utility.yul\":2751:2920   */\n      swap3\n      swap2\n      pop\n      pop\n      jump\t// out\n        /* \"#utility.yul\":2926:3233   */\n    tag_94:\n        /* \"#utility.yul\":2994:2995   */\n      0x00\n        /* \"#utility.yul\":3004:3117   */\n    tag_163:\n        /* \"#utility.yul\":3018:3024   */\n      dup4\n        /* \"#utility.yul\":3015:3016   */\n      dup2\n        /* \"#utility.yul\":3012:3025   */\n      lt\n        /* \"#utility.yul\":3004:3117   */\n      iszero\n      tag_165\n      jumpi\n        /* \"#utility.yul\":3103:3104   */\n      dup1\n        /* \"#utility.yul\":3098:3101   */\n      dup3\n        /* \"#utility.yul\":3094:3105   */\n      add\n        /* \"#utility.yul\":3088:3106   */\n      mload\n        /* \"#utility.yul\":3084:3085   */\n      dup2\n        /* \"#utility.yul\":3079:3082   */\n      dup5\n        /* \"#utility.yul\":3075:3086   */\n      add\n        /* \"#utility.yul\":3068:3107   */\n      mstore\n        /* \"#utility.yul\":3040:3042   */\n      0x20\n        /* \"#utility.yul\":3037:3038   */\n      dup2\n        /* \"#utility.yul\":3033:3043   */\n      add\n        /* \"#utility.yul\":3028:3043   */\n      swap1\n      pop\n        /* \"#utility.yul\":3004:3117   */\n      jump(tag_163)\n    tag_165:\n        /* \"#utility.yul\":3135:3141   */\n      dup4\n        /* \"#utility.yul\":3132:3133   */\n      dup2\n        /* \"#utility.yul\":3129:3142   */\n      gt\n        /* \"#utility.yul\":3126:3227   */\n      iszero\n      tag_166\n      jumpi\n        /* \"#utility.yul\":3215:3216   */\n      0x00\n        /* \"#utility.yul\":3206:3212   */\n      dup5\n        /* \"#utility.yul\":3201:3204   */\n      dup5\n        /* \"#utility.yul\":3197:3213   */\n      add\n        /* \"#utility.yul\":3190:3217   */\n      mstore\n        /* \"#utility.yul\":3126:3227   */\n    tag_166:\n        /* \"#utility.yul\":2975:3233   */\n      pop\n        /* \"#utility.yul\":2926:3233   */\n      pop\n      pop\n      pop\n      jump\t// out\n        /* \"#utility.yul\":3239:3341   */\n    tag_95:\n        /* \"#utility.yul\":3280:3286   */\n      0x00\n        /* \"#utility.yul\":3331:3333   */\n      0x1f\n        /* \"#utility.yul\":3327:3334   */\n      not\n        /* \"#utility.yul\":3322:3324   */\n      0x1f\n        /* \"#utility.yul\":3315:3320   */\n      dup4\n        /* \"#utility.yul\":3311:3325   */\n      add\n        /* \"#utility.yul\":3307:3335   */\n      and\n        /* \"#utility.yul\":3297:3335   */\n      swap1\n      pop\n        /* \"#utility.yul\":3239:3341   */\n      swap2\n      swap1\n      pop\n      jump\t// out\n        /* \"#utility.yul\":3347:3711   */\n    tag_96:\n        /* \"#utility.yul\":3435:3438   */\n      0x00\n        /* \"#utility.yul\":3463:3502   */\n      tag_169\n        /* \"#utility.yul\":3496:3501   */\n      dup3\n        /* \"#utility.yul\":3463:3502   */\n      tag_92\n      jump\t// in\n    tag_169:\n        /* \"#utility.yul\":3518:3589   */\n      tag_170\n        /* \"#utility.yul\":3582:3588   */\n      dup2\n        /* \"#utility.yul\":3577:3580   */\n      dup6\n        /* \"#utility.yul\":3518:3589   */\n      tag_93\n      jump\t// in\n    tag_170:\n        /* \"#utility.yul\":3511:3589   */\n      swap4\n      pop\n        /* \"#utility.yul\":3598:3650   */\n      tag_171\n        /* \"#utility.yul\":3643:3649   */\n      dup2\n        /* \"#utility.yul\":3638:3641   */\n      dup6\n        /* \"#utility.yul\":3631:3635   */\n      0x20\n        /* \"#utility.yul\":3624:3629   */\n      dup7\n        /* \"#utility.yul\":3620:3636   */\n      add\n        /* \"#utility.yul\":3598:3650   */\n      tag_94\n      jump\t// in\n    tag_171:\n        /* \"#utility.yul\":3675:3704   */\n      tag_172\n        /* \"#utility.yul\":3697:3703   */\n      dup2\n        /* \"#utility.yul\":3675:3704   */\n      tag_95\n      jump\t// in\n    tag_172:\n        /* \"#utility.yul\":3670:3673   */\n      dup5\n        /* \"#utility.yul\":3666:3705   */\n      add\n        /* \"#utility.yul\":3659:3705   */\n      swap2\n      pop\n        /* \"#utility.yul\":3439:3711   */\n      pop\n        /* \"#utility.yul\":3347:3711   */\n      swap3\n      swap2\n      pop\n      pop\n      jump\t// out\n        /* \"#utility.yul\":3717:3835   */\n    tag_97:\n        /* \"#utility.yul\":3804:3828   */\n      tag_174\n        /* \"#utility.yul\":3822:3827   */\n      dup2\n        /* \"#utility.yul\":3804:3828   */\n      tag_82\n      jump\t// in\n    tag_174:\n        /* \"#utility.yul\":3799:3802   */\n      dup3\n        /* \"#utility.yul\":3792:3829   */\n      mstore\n        /* \"#utility.yul\":3717:3835   */\n      pop\n      pop\n      jump\t// out\n        /* \"#utility.yul\":3841:4584   */\n    tag_33:\n        /* \"#utility.yul\":4060:4064   */\n      0x00\n        /* \"#utility.yul\":4098:4101   */\n      0xa0\n        /* \"#utility.yul\":4087:4096   */\n      dup3\n        /* \"#utility.yul\":4083:4102   */\n      add\n        /* \"#utility.yul\":4075:4102   */\n      swap1\n      pop\n        /* \"#utility.yul\":4148:4157   */\n      dup2\n        /* \"#utility.yul\":4142:4146   */\n      dup2\n        /* \"#utility.yul\":4138:4158   */\n      sub\n        /* \"#utility.yul\":4134:4135   */\n      0x00\n        /* \"#utility.yul\":4123:4132   */\n      dup4\n        /* \"#utility.yul\":4119:4136   */\n      add\n        /* \"#utility.yul\":4112:4159   */\n      mstore\n        /* \"#utility.yul\":4176:4254   */\n      tag_176\n        /* \"#utility.yul\":4249:4253   */\n      dup2\n        /* \"#utility.yul\":4240:4246   */\n      dup9\n        /* \"#utility.yul\":4176:4254   */\n      tag_96\n      jump\t// in\n    tag_176:\n        /* \"#utility.yul\":4168:4254   */\n      swap1\n      pop\n        /* \"#utility.yul\":4264:4336   */\n      tag_177\n        /* \"#utility.yul\":4332:4334   */\n      0x20\n        /* \"#utility.yul\":4321:4330   */\n      dup4\n        /* \"#utility.yul\":4317:4335   */\n      add\n        /* \"#utility.yul\":4308:4314   */\n      dup8\n        /* \"#utility.yul\":4264:4336   */\n      tag_97\n      jump\t// in\n    tag_177:\n        /* \"#utility.yul\":4346:4418   */\n      tag_178\n        /* \"#utility.yul\":4414:4416   */\n      0x40\n        /* \"#utility.yul\":4403:4412   */\n      dup4\n        /* \"#utility.yul\":4399:4417   */\n      add\n        /* \"#utility.yul\":4390:4396   */\n      dup7\n        /* \"#utility.yul\":4346:4418   */\n      tag_91\n      jump\t// in\n    tag_178:\n        /* \"#utility.yul\":4428:4494   */\n      tag_179\n        /* \"#utility.yul\":4490:4492   */\n      0x60\n        /* \"#utility.yul\":4479:4488   */\n      dup4\n        /* \"#utility.yul\":4475:4493   */\n      add\n        /* \"#utility.yul\":4466:4472   */\n      dup6\n        /* \"#utility.yul\":4428:4494   */\n      tag_90\n      jump\t// in\n    tag_179:\n        /* \"#utility.yul\":4504:4577   */\n      tag_180\n        /* \"#utility.yul\":4572:4575   */\n      0x80\n        /* \"#utility.yul\":4561:4570   */\n      dup4\n        /* \"#utility.yul\":4557:4576   */\n      add\n        /* \"#utility.yul\":4548:4554   */\n      dup5\n        /* \"#utility.yul\":4504:4577   */\n      tag_97\n      jump\t// in\n    tag_180:\n        /* \"#utility.yul\":3841:4584   */\n      swap7\n      swap6\n      pop\n      pop\n      pop\n      pop\n      pop\n      pop\n      jump\t// out\n        /* \"#utility.yul\":4590:4707   */\n    tag_98:\n        /* \"#utility.yul\":4699:4700   */\n      0x00\n        /* \"#utility.yul\":4696:4697   */\n      dup1\n        /* \"#utility.yul\":4689:4701   */\n      revert\n        /* \"#utility.yul\":4713:4830   */\n    tag_99:\n        /* \"#utility.yul\":4822:4823   */\n      0x00\n        /* \"#utility.yul\":4819:4820   */\n      dup1\n        /* \"#utility.yul\":4812:4824   */\n      revert\n        /* \"#utility.yul\":4836:5016   */\n    tag_100:\n        /* \"#utility.yul\":4884:4961   */\n      0x4e487b7100000000000000000000000000000000000000000000000000000000\n        /* \"#utility.yul\":4881:4882   */\n      0x00\n        /* \"#utility.yul\":4874:4962   */\n      mstore\n        /* \"#utility.yul\":4981:4985   */\n      0x41\n        /* \"#utility.yul\":4978:4979   */\n      0x04\n        /* \"#utility.yul\":4971:4986   */\n      mstore\n        /* \"#utility.yul\":5005:5009   */\n      0x24\n        /* \"#utility.yul\":5002:5003   */\n      0x00\n        /* \"#utility.yul\":4995:5010   */\n      revert\n        /* \"#utility.yul\":5022:5303   */\n    tag_101:\n        /* \"#utility.yul\":5105:5132   */\n      tag_185\n        /* \"#utility.yul\":5127:5131   */\n      dup3\n        /* \"#utility.yul\":5105:5132   */\n      tag_95\n      jump\t// in\n    tag_185:\n        /* \"#utility.yul\":5097:5103   */\n      dup2\n        /* \"#utility.yul\":5093:5133   */\n      add\n        /* \"#utility.yul\":5235:5241   */\n      dup2\n        /* \"#utility.yul\":5223:5233   */\n      dup2\n        /* \"#utility.yul\":5220:5242   */\n      lt\n        /* \"#utility.yul\":5199:5217   */\n      0xffffffffffffffff\n        /* \"#utility.yul\":5187:5197   */\n      dup3\n        /* \"#utility.yul\":5184:5218   */\n      gt\n        /* \"#utility.yul\":5181:5243   */\n      or\n        /* \"#utility.yul\":5178:5266   */\n      iszero\n      tag_186\n      jumpi\n        /* \"#utility.yul\":5246:5264   */\n      tag_187\n      tag_100\n      jump\t// in\n    tag_187:\n        /* \"#utility.yul\":5178:5266   */\n    tag_186:\n        /* \"#utility.yul\":5286:5296   */\n      dup1\n        /* \"#utility.yul\":5282:5284   */\n      0x40\n        /* \"#utility.yul\":5275:5297   */\n      mstore\n        /* \"#utility.yul\":5065:5303   */\n      pop\n        /* \"#utility.yul\":5022:5303   */\n      pop\n      pop\n      jump\t// out\n        /* \"#utility.yul\":5309:5438   */\n    tag_102:\n        /* \"#utility.yul\":5343:5349   */\n      0x00\n        /* \"#utility.yul\":5370:5390   */\n      tag_189\n      tag_79\n      jump\t// in\n    tag_189:\n        /* \"#utility.yul\":5360:5390   */\n      swap1\n      pop\n        /* \"#utility.yul\":5399:5432   */\n      tag_190\n        /* \"#utility.yul\":5427:5431   */\n      dup3\n        /* \"#utility.yul\":5419:5425   */\n      dup3\n        /* \"#utility.yul\":5399:5432   */\n      tag_101\n      jump\t// in\n    tag_190:\n        /* \"#utility.yul\":5309:5438   */\n      swap2\n      swap1\n      pop\n      jump\t// out\n        /* \"#utility.yul\":5444:5752   */\n    tag_103:\n        /* \"#utility.yul\":5506:5510   */\n      0x00\n        /* \"#utility.yul\":5596:5614   */\n      0xffffffffffffffff\n        /* \"#utility.yul\":5588:5594   */\n      dup3\n        /* \"#utility.yul\":5585:5615   */\n      gt\n        /* \"#utility.yul\":5582:5638   */\n      iszero\n      tag_192\n      jumpi\n        /* \"#utility.yul\":5618:5636   */\n      tag_193\n      tag_100\n      jump\t// in\n    tag_193:\n        /* \"#utility.yul\":5582:5638   */\n    tag_192:\n        /* \"#utility.yul\":5656:5685   */\n      tag_194\n        /* \"#utility.yul\":5678:5684   */\n      dup3\n        /* \"#utility.yul\":5656:5685   */\n      tag_95\n      jump\t// in\n    tag_194:\n        /* \"#utility.yul\":5648:5685   */\n      swap1\n      pop\n        /* \"#utility.yul\":5740:5744   */\n      0x20\n        /* \"#utility.yul\":5734:5738   */\n      dup2\n        /* \"#utility.yul\":5730:5745   */\n      add\n        /* \"#utility.yul\":5722:5745   */\n      swap1\n      pop\n        /* \"#utility.yul\":5444:5752   */\n      swap2\n      swap1\n      pop\n      jump\t// out\n        /* \"#utility.yul\":5758:5912   */\n    tag_104:\n        /* \"#utility.yul\":5842:5848   */\n      dup3\n        /* \"#utility.yul\":5837:5840   */\n      dup2\n        /* \"#utility.yul\":5832:5835   */\n      dup4\n        /* \"#utility.yul\":5819:5849   */\n      calldatacopy\n        /* \"#utility.yul\":5904:5905   */\n      0x00\n        /* \"#utility.yul\":5895:5901   */\n      dup4\n        /* \"#utility.yul\":5890:5893   */\n      dup4\n        /* \"#utility.yul\":5886:5902   */\n      add\n        /* \"#utility.yul\":5879:5906   */\n      mstore\n        /* \"#utility.yul\":5758:5912   */\n      pop\n      pop\n      pop\n      jump\t// out\n        /* \"#utility.yul\":5918:6330   */\n    tag_105:\n        /* \"#utility.yul\":5996:6001   */\n      0x00\n        /* \"#utility.yul\":6021:6087   */\n      tag_197\n        /* \"#utility.yul\":6037:6086   */\n      tag_198\n        /* \"#utility.yul\":6079:6085   */\n      dup5\n        /* \"#utility.yul\":6037:6086   */\n      tag_103\n      jump\t// in\n    tag_198:\n        /* \"#utility.yul\":6021:6087   */\n      tag_102\n      jump\t// in\n    tag_197:\n        /* \"#utility.yul\":6012:6087   */\n      swap1\n      pop\n        /* \"#utility.yul\":6110:6116   */\n      dup3\n        /* \"#utility.yul\":6103:6108   */\n      dup2\n        /* \"#utility.yul\":6096:6117   */\n      mstore\n        /* \"#utility.yul\":6148:6152   */\n      0x20\n        /* \"#utility.yul\":6141:6146   */\n      dup2\n        /* \"#utility.yul\":6137:6153   */\n      add\n        /* \"#utility.yul\":6186:6189   */\n      dup5\n        /* \"#utility.yul\":6177:6183   */\n      dup5\n        /* \"#utility.yul\":6172:6175   */\n      dup5\n        /* \"#utility.yul\":6168:6184   */\n      add\n        /* \"#utility.yul\":6165:6190   */\n      gt\n        /* \"#utility.yul\":6162:6274   */\n      iszero\n      tag_199\n      jumpi\n        /* \"#utility.yul\":6193:6272   */\n      tag_200\n      tag_99\n      jump\t// in\n    tag_200:\n        /* \"#utility.yul\":6162:6274   */\n    tag_199:\n        /* \"#utility.yul\":6283:6324   */\n      tag_201\n        /* \"#utility.yul\":6317:6323   */\n      dup5\n        /* \"#utility.yul\":6312:6315   */\n      dup3\n        /* \"#utility.yul\":6307:6310   */\n      dup6\n        /* \"#utility.yul\":6283:6324   */\n      tag_104\n      jump\t// in\n    tag_201:\n        /* \"#utility.yul\":6002:6330   */\n      pop\n        /* \"#utility.yul\":5918:6330   */\n      swap4\n      swap3\n      pop\n      pop\n      pop\n      jump\t// out\n        /* \"#utility.yul\":6350:6690   */\n    tag_106:\n        /* \"#utility.yul\":6406:6411   */\n      0x00\n        /* \"#utility.yul\":6455:6458   */\n      dup3\n        /* \"#utility.yul\":6448:6452   */\n      0x1f\n        /* \"#utility.yul\":6440:6446   */\n      dup4\n        /* \"#utility.yul\":6436:6453   */\n      add\n        /* \"#utility.yul\":6432:6459   */\n      slt\n        /* \"#utility.yul\":6422:6544   */\n      tag_203\n      jumpi\n        /* \"#utility.yul\":6463:6542   */\n      tag_204\n      tag_98\n      jump\t// in\n    tag_204:\n        /* \"#utility.yul\":6422:6544   */\n    tag_203:\n        /* \"#utility.yul\":6580:6586   */\n      dup2\n        /* \"#utility.yul\":6567:6587   */\n      calldataload\n        /* \"#utility.yul\":6605:6684   */\n      tag_205\n        /* \"#utility.yul\":6680:6683   */\n      dup5\n        /* \"#utility.yul\":6672:6678   */\n      dup3\n        /* \"#utility.yul\":6665:6669   */\n      0x20\n        /* \"#utility.yul\":6657:6663   */\n      dup7\n        /* \"#utility.yul\":6653:6670   */\n      add\n        /* \"#utility.yul\":6605:6684   */\n      tag_105\n      jump\t// in\n    tag_205:\n        /* \"#utility.yul\":6596:6684   */\n      swap2\n      pop\n        /* \"#utility.yul\":6412:6690   */\n      pop\n        /* \"#utility.yul\":6350:6690   */\n      swap3\n      swap2\n      pop\n      pop\n      jump\t// out\n        /* \"#utility.yul\":6696:7495   */\n    tag_37:\n        /* \"#utility.yul\":6783:6789   */\n      0x00\n        /* \"#utility.yul\":6791:6797   */\n      dup1\n        /* \"#utility.yul\":6799:6805   */\n      0x00\n        /* \"#utility.yul\":6848:6850   */\n      0x60\n        /* \"#utility.yul\":6836:6845   */\n      dup5\n        /* \"#utility.yul\":6827:6834   */\n      dup7\n        /* \"#utility.yul\":6823:6846   */\n      sub\n        /* \"#utility.yul\":6819:6851   */\n      slt\n        /* \"#utility.yul\":6816:6935   */\n      iszero\n      tag_207\n      jumpi\n        /* \"#utility.yul\":6854:6933   */\n      tag_208\n      tag_80\n      jump\t// in\n    tag_208:\n        /* \"#utility.yul\":6816:6935   */\n    tag_207:\n        /* \"#utility.yul\":7002:7003   */\n      0x00\n        /* \"#utility.yul\":6991:7000   */\n      dup5\n        /* \"#utility.yul\":6987:7004   */\n      add\n        /* \"#utility.yul\":6974:7005   */\n      calldataload\n        /* \"#utility.yul\":7032:7050   */\n      0xffffffffffffffff\n        /* \"#utility.yul\":7024:7030   */\n      dup2\n        /* \"#utility.yul\":7021:7051   */\n      gt\n        /* \"#utility.yul\":7018:7135   */\n      iszero\n      tag_209\n      jumpi\n        /* \"#utility.yul\":7054:7133   */\n      tag_210\n      tag_81\n      jump\t// in\n    tag_210:\n        /* \"#utility.yul\":7018:7135   */\n    tag_209:\n        /* \"#utility.yul\":7159:7222   */\n      tag_211\n        /* \"#utility.yul\":7214:7221   */\n      dup7\n        /* \"#utility.yul\":7205:7211   */\n      dup3\n        /* \"#utility.yul\":7194:7203   */\n      dup8\n        /* \"#utility.yul\":7190:7212   */\n      add\n        /* \"#utility.yul\":7159:7222   */\n      tag_106\n      jump\t// in\n    tag_211:\n        /* \"#utility.yul\":7149:7222   */\n      swap4\n      pop\n        /* \"#utility.yul\":6945:7232   */\n      pop\n        /* \"#utility.yul\":7271:7273   */\n      0x20\n        /* \"#utility.yul\":7297:7350   */\n      tag_212\n        /* \"#utility.yul\":7342:7349   */\n      dup7\n        /* \"#utility.yul\":7333:7339   */\n      dup3\n        /* \"#utility.yul\":7322:7331   */\n      dup8\n        /* \"#utility.yul\":7318:7340   */\n      add\n        /* \"#utility.yul\":7297:7350   */\n      tag_84\n      jump\t// in\n    tag_212:\n        /* \"#utility.yul\":7287:7350   */\n      swap3\n      pop\n        /* \"#utility.yul\":7242:7360   */\n      pop\n        /* \"#utility.yul\":7399:7401   */\n      0x40\n        /* \"#utility.yul\":7425:7478   */\n      tag_213\n        /* \"#utility.yul\":7470:7477   */\n      dup7\n        /* \"#utility.yul\":7461:7467   */\n      dup3\n        /* \"#utility.yul\":7450:7459   */\n      dup8\n        /* \"#utility.yul\":7446:7468   */\n      add\n        /* \"#utility.yul\":7425:7478   */\n      tag_88\n      jump\t// in\n    tag_213:\n        /* \"#utility.yul\":7415:7478   */\n      swap2\n      pop\n        /* \"#utility.yul\":7370:7488   */\n      pop\n        /* \"#utility.yul\":6696:7495   */\n      swap3\n      pop\n      swap3\n      pop\n      swap3\n      jump\t// out\n        /* \"#utility.yul\":7501:7723   */\n    tag_43:\n        /* \"#utility.yul\":7594:7598   */\n      0x00\n        /* \"#utility.yul\":7632:7634   */\n      0x20\n        /* \"#utility.yul\":7621:7630   */\n      dup3\n        /* \"#utility.yul\":7617:7635   */\n      add\n        /* \"#utility.yul\":7609:7635   */\n      swap1\n      pop\n        /* \"#utility.yul\":7645:7716   */\n      tag_215\n        /* \"#utility.yul\":7713:7714   */\n      0x00\n        /* \"#utility.yul\":7702:7711   */\n      dup4\n        /* \"#utility.yul\":7698:7715   */\n      add\n        /* \"#utility.yul\":7689:7695   */\n      dup5\n        /* \"#utility.yul\":7645:7716   */\n      tag_97\n      jump\t// in\n    tag_215:\n        /* \"#utility.yul\":7501:7723   */\n      swap3\n      swap2\n      pop\n      pop\n      jump\t// out\n        /* \"#utility.yul\":7729:7909   */\n    tag_107:\n        /* \"#utility.yul\":7777:7854   */\n      0x4e487b7100000000000000000000000000000000000000000000000000000000\n        /* \"#utility.yul\":7774:7775   */\n      0x00\n        /* \"#utility.yul\":7767:7855   */\n      mstore\n        /* \"#utility.yul\":7874:7878   */\n      0x12\n        /* \"#utility.yul\":7871:7872   */\n      0x04\n        /* \"#utility.yul\":7864:7879   */\n      mstore\n        /* \"#utility.yul\":7898:7902   */\n      0x24\n        /* \"#utility.yul\":7895:7896   */\n      0x00\n        /* \"#utility.yul\":7888:7903   */\n      revert\n        /* \"#utility.yul\":7915:8095   */\n    tag_108:\n        /* \"#utility.yul\":7963:8040   */\n      0x4e487b7100000000000000000000000000000000000000000000000000000000\n        /* \"#utility.yul\":7960:7961   */\n      0x00\n        /* \"#utility.yul\":7953:8041   */\n      mstore\n        /* \"#utility.yul\":8060:8064   */\n      0x11\n        /* \"#utility.yul\":8057:8058   */\n      0x04\n        /* \"#utility.yul\":8050:8065   */\n      mstore\n        /* \"#utility.yul\":8084:8088   */\n      0x24\n        /* \"#utility.yul\":8081:8082   */\n      0x00\n        /* \"#utility.yul\":8074:8089   */\n      revert\n        /* \"#utility.yul\":8101:8286   */\n    tag_54:\n        /* \"#utility.yul\":8141:8142   */\n      0x00\n        /* \"#utility.yul\":8158:8178   */\n      tag_219\n        /* \"#utility.yul\":8176:8177   */\n      dup3\n        /* \"#utility.yul\":8158:8178   */\n      tag_82\n      jump\t// in\n    tag_219:\n        /* \"#utility.yul\":8153:8178   */\n      swap2\n      pop\n        /* \"#utility.yul\":8192:8212   */\n      tag_220\n        /* \"#utility.yul\":8210:8211   */\n      dup4\n        /* \"#utility.yul\":8192:8212   */\n      tag_82\n      jump\t// in\n    tag_220:\n        /* \"#utility.yul\":8187:8212   */\n      swap3\n      pop\n        /* \"#utility.yul\":8231:8232   */\n      dup3\n        /* \"#utility.yul\":8221:8256   */\n      tag_221\n      jumpi\n        /* \"#utility.yul\":8236:8254   */\n      tag_222\n      tag_107\n      jump\t// in\n    tag_222:\n        /* \"#utility.yul\":8221:8256   */\n    tag_221:\n        /* \"#utility.yul\":8278:8279   */\n      dup3\n        /* \"#utility.yul\":8275:8276   */\n      dup3\n        /* \"#utility.yul\":8271:8280   */\n      div\n        /* \"#utility.yul\":8266:8280   */\n      swap1\n      pop\n        /* \"#utility.yul\":8101:8286   */\n      swap3\n      swap2\n      pop\n      pop\n      jump\t// out\n        /* \"#utility.yul\":8292:8472   */\n    tag_109:\n        /* \"#utility.yul\":8340:8417   */\n      0x4e487b7100000000000000000000000000000000000000000000000000000000\n        /* \"#utility.yul\":8337:8338   */\n      0x00\n        /* \"#utility.yul\":8330:8418   */\n      mstore\n        /* \"#utility.yul\":8437:8441   */\n      0x22\n        /* \"#utility.yul\":8434:8435   */\n      0x04\n        /* \"#utility.yul\":8427:8442   */\n      mstore\n        /* \"#utility.yul\":8461:8465   */\n      0x24\n        /* \"#utility.yul\":8458:8459   */\n      0x00\n        /* \"#utility.yul\":8451:8466   */\n      revert\n        /* \"#utility.yul\":8478:8798   */\n    tag_60:\n        /* \"#utility.yul\":8522:8528   */\n      0x00\n        /* \"#utility.yul\":8559:8560   */\n      0x02\n        /* \"#utility.yul\":8553:8557   */\n      dup3\n        /* \"#utility.yul\":8549:8561   */\n      div\n        /* \"#utility.yul\":8539:8561   */\n      swap1\n      pop\n        /* \"#utility.yul\":8606:8607   */\n      0x01\n        /* \"#utility.yul\":8600:8604   */\n      dup3\n        /* \"#utility.yul\":8596:8608   */\n      and\n        /* \"#utility.yul\":8627:8645   */\n      dup1\n        /* \"#utility.yul\":8617:8698   */\n      tag_225\n      jumpi\n        /* \"#utility.yul\":8683:8687   */\n      0x7f\n        /* \"#utility.yul\":8675:8681   */\n      dup3\n        /* \"#utility.yul\":8671:8688   */\n      and\n        /* \"#utility.yul\":8661:8688   */\n      swap2\n      pop\n        /* \"#utility.yul\":8617:8698   */\n    tag_225:\n        /* \"#utility.yul\":8745:8747   */\n      0x20\n        /* \"#utility.yul\":8737:8743   */\n      dup3\n        /* \"#utility.yul\":8734:8748   */\n      lt\n        /* \"#utility.yul\":8714:8732   */\n      dup2\n        /* \"#utility.yul\":8711:8749   */\n      sub\n        /* \"#utility.yul\":8708:8792   */\n      tag_226\n      jumpi\n        /* \"#utility.yul\":8764:8782   */\n      tag_227\n      tag_109\n      jump\t// in\n    tag_227:\n        /* \"#utility.yul\":8708:8792   */\n    tag_226:\n        /* \"#utility.yul\":8529:8798   */\n      pop\n        /* \"#utility.yul\":8478:8798   */\n      swap2\n      swap1\n      pop\n      jump\t// out\n        /* \"#utility.yul\":8804:9037   */\n    tag_69:\n        /* \"#utility.yul\":8843:8846   */\n      0x00\n        /* \"#utility.yul\":8866:8890   */\n      tag_229\n        /* \"#utility.yul\":8884:8889   */\n      dup3\n        /* \"#utility.yul\":8866:8890   */\n      tag_82\n      jump\t// in\n    tag_229:\n        /* \"#utility.yul\":8857:8890   */\n      swap2\n      pop\n        /* \"#utility.yul\":8912:8978   */\n      0xffffffffffffffffffffffffffffffffffffffffffffffffffffffffffffffff\n        /* \"#utility.yul\":8905:8910   */\n      dup3\n        /* \"#utility.yul\":8902:8979   */\n      sub\n        /* \"#utility.yul\":8899:9002   */\n      tag_230\n      jumpi\n        /* \"#utility.yul\":8982:9000   */\n      tag_231\n      tag_108\n      jump\t// in\n    tag_231:\n        /* \"#utility.yul\":8899:9002   */\n    tag_230:\n        /* \"#utility.yul\":9029:9030   */\n      0x01\n        /* \"#utility.yul\":9022:9027   */\n      dup3\n        /* \"#utility.yul\":9018:9031   */\n      add\n        /* \"#utility.yul\":9011:9031   */\n      swap1\n      pop\n        /* \"#utility.yul\":8804:9037   */\n      swap2\n      swap1\n      pop\n      jump\t// out\n        /* \"#utility.yul\":9043:9184   */\n    tag_110:\n        /* \"#utility.yul\":9092:9096   */\n      0x00\n        /* \"#utility.yul\":9115:9118   */\n      dup2\n        /* \"#utility.yul\":9107:9118   */\n      swap1\n      pop\n        /* \"#utility.yul\":9138:9141   */\n      dup2\n        /* \"#utility.yul\":9135:9136   */\n      0x00\n        /* \"#utility.yul\":9128:9142   */\n      mstore\n        /* \"#utility.yul\":9172:9176   */\n      0x20\n        /* \"#utility.yul\":9169:9170   */\n      0x00\n        /* \"#utility.yul\":9159:9177   */\n      keccak256\n        /* \"#utility.yul\":9151:9177   */\n      swap1\n      pop\n        /* \"#utility.yul\":9043:9184   */\n      swap2\n      swap1\n      pop\n      jump\t// out\n        /* \"#utility.yul\":9190:9283   */\n    tag_111:\n        /* \"#utility.yul\":9227:9233   */\n      0x00\n        /* \"#utility.yul\":9274:9276   */\n      0x20\n        /* \"#utility.yul\":9269:9271   */\n      0x1f\n        /* \"#utility.yul\":9262:9267   */\n      dup4\n        /* \"#utility.yul\":9258:9272   */\n      add\n        /* \"#utility.yul\":9254:9277   */\n      div\n        /* \"#utility.yul\":9244:9277   */\n      swap1\n      pop\n        /* \"#utility.yul\":9190:9283   */\n      swap2\n      swap1\n      pop\n      jump\t// out\n        /* \"#utility.yul\":9289:9396   */\n    tag_112:\n        /* \"#utility.yul\":9333:9341   */\n      0x00\n        /* \"#utility.yul\":9383:9388   */\n      dup3\n        /* \"#utility.yul\":9377:9381   */\n      dup3\n        /* \"#utility.yul\":9373:9389   */\n      shl\n        /* \"#utility.yul\":9352:9389   */\n      swap1\n      pop\n        /* \"#utility.yul\":9289:9396   */\n      swap3\n      swap2\n      pop\n      pop\n      jump\t// out\n        /* \"#utility.yul\":9402:9795   */\n    tag_113:\n        /* \"#utility.yul\":9471:9477   */\n      0x00\n        /* \"#utility.yul\":9521:9522   */\n      0x08\n        /* \"#utility.yul\":9509:9519   */\n      dup4\n        /* \"#utility.yul\":9505:9523   */\n      mul\n        /* \"#utility.yul\":9544:9641   */\n      tag_236\n        /* \"#utility.yul\":9574:9640   */\n      0xffffffffffffffffffffffffffffffffffffffffffffffffffffffffffffffff\n        /* \"#utility.yul\":9563:9572   */\n      dup3\n        /* \"#utility.yul\":9544:9641   */\n      tag_112\n      jump\t// in\n    tag_236:\n        /* \"#utility.yul\":9662:9701   */\n      tag_237\n        /* \"#utility.yul\":9692:9700   */\n      dup7\n        /* \"#utility.yul\":9681:9690   */\n      dup4\n        /* \"#utility.yul\":9662:9701   */\n      tag_112\n      jump\t// in\n    tag_237:\n        /* \"#utility.yul\":9650:9701   */\n      swap6\n      pop\n        /* \"#utility.yul\":9734:9738   */\n      dup1\n        /* \"#utility.yul\":9730:9739   */\n      not\n        /* \"#utility.yul\":9723:9728   */\n      dup5\n        /* \"#utility.yul\":9719:9740   */\n      and\n        /* \"#utility.yul\":9710:9740   */\n      swap4\n      pop\n        /* \"#utility.yul\":9783:9787   */\n      dup1\n        /* \"#utility.yul\":9773:9781   */\n      dup7\n        /* \"#utility.yul\":9769:9788   */\n      and\n        /* \"#utility.yul\":9762:9767   */\n      dup5\n        /* \"#utility.yul\":9759:9789   */\n      or\n        /* \"#utility.yul\":9749:9789   */\n      swap3\n      pop\n        /* \"#utility.yul\":9478:9795   */\n      pop\n      pop\n        /* \"#utility.yul\":9402:9795   */\n      swap4\n      swap3\n      pop\n      pop\n      pop\n      jump\t// out\n        /* \"#utility.yul\":9801:9861   */\n    tag_114:\n        /* \"#utility.yul\":9829:9832   */\n      0x00\n        /* \"#utility.yul\":9850:9855   */\n      dup2\n        /* \"#utility.yul\":9843:9855   */\n      swap1\n      pop\n        /* \"#utility.yul\":9801:9861   */\n      swap2\n      swap1\n      pop\n      jump\t// out\n        /* \"#utility.yul\":9867:10009   */\n    tag_115:\n        /* \"#utility.yul\":9917:9926   */\n      0x00\n        /* \"#utility.yul\":9950:10003   */\n      tag_240\n        /* \"#utility.yul\":9968:10002   */\n      tag_241\n        /* \"#utility.yul\":9977:10001   */\n      tag_242\n        /* \"#utility.yul\":9995:10000   */\n      dup5\n        /* \"#utility.yul\":9977:10001   */\n      tag_82\n      jump\t// in\n    tag_242:\n        /* \"#utility.yul\":9968:10002   */\n      tag_114\n      jump\t// in\n    tag_241:\n        /* \"#utility.yul\":9950:10003   */\n      tag_82\n      jump\t// in\n    tag_240:\n        /* \"#utility.yul\":9937:10003   */\n      swap1\n      pop\n        /* \"#utility.yul\":9867:10009   */\n      swap2\n      swap1\n      pop\n      jump\t// out\n        /* \"#utility.yul\":10015:10090   */\n    tag_116:\n        /* \"#utility.yul\":10058:10061   */\n      0x00\n        /* \"#utility.yul\":10079:10084   */\n      dup2\n        /* \"#utility.yul\":10072:10084   */\n      swap1\n      pop\n        /* \"#utility.yul\":10015:10090   */\n      swap2\n      swap1\n      pop\n      jump\t// out\n        /* \"#utility.yul\":10096:10365   */\n    tag_117:\n        /* \"#utility.yul\":10206:10245   */\n      tag_245\n        /* \"#utility.yul\":10237:10244   */\n      dup4\n        /* \"#utility.yul\":10206:10245   */\n      tag_115\n      jump\t// in\n    tag_245:\n        /* \"#utility.yul\":10267:10358   */\n      tag_246\n        /* \"#utility.yul\":10316:10357   */\n      tag_247\n        /* \"#utility.yul\":10340:10356   */\n      dup3\n        /* \"#utility.yul\":10316:10357   */\n      tag_116\n      jump\t// in\n    tag_247:\n        /* \"#utility.yul\":10308:10314   */\n      dup5\n        /* \"#utility.yul\":10301:10305   */\n      dup5\n        /* \"#utility.yul\":10295:10306   */\n      sload\n        /* \"#utility.yul\":10267:10358   */\n      tag_113\n      jump\t// in\n    tag_246:\n        /* \"#utility.yul\":10261:10265   */\n      dup3\n        /* \"#utility.yul\":10254:10359   */\n      sstore\n        /* \"#utility.yul\":10172:10365   */\n      pop\n        /* \"#utility.yul\":10096:10365   */\n      pop\n      pop\n      pop\n      jump\t// out\n        /* \"#utility.yul\":10371:10444   */\n    tag_118:\n        /* \"#utility.yul\":10416:10419   */\n      0x00\n        /* \"#utility.yul\":10371:10444   */\n      swap1\n      jump\t// out\n        /* \"#utility.yul\":10450:10639   */\n    tag_119:\n        /* \"#utility.yul\":10527:10559   */\n      tag_250\n      tag_118\n      jump\t// in\n    tag_250:\n        /* \"#utility.yul\":10568:10633   */\n      tag_251\n        /* \"#utility.yul\":10626:10632   */\n      dup2\n        /* \"#utility.yul\":10618:10624   */\n      dup5\n        /* \"#utility.yul\":10612:10616   */\n      dup5\n        /* \"#utility.yul\":10568:10633   */\n      tag_117\n      jump\t// in\n    tag_251:\n        /* \"#utility.yul\":10503:10639   */\n      pop\n        /* \"#utility.yul\":10450:10639   */\n      pop\n      pop\n      jump\t// out\n        /* \"#utility.yul\":10645:10831   */\n    tag_120:\n        /* \"#utility.yul\":10705:10825   */\n    tag_253:\n        /* \"#utility.yul\":10722:10725   */\n      dup2\n        /* \"#utility.yul\":10715:10720   */\n      dup2\n        /* \"#utility.yul\":10712:10726   */\n      lt\n        /* \"#utility.yul\":10705:10825   */\n      iszero\n      tag_255\n      jumpi\n        /* \"#utility.yul\":10776:10815   */\n      tag_256\n        /* \"#utility.yul\":10813:10814   */\n      0x00\n        /* \"#utility.yul\":10806:10811   */\n      dup3\n        /* \"#utility.yul\":10776:10815   */\n      tag_119\n      jump\t// in\n    tag_256:\n        /* \"#utility.yul\":10749:10750   */\n      0x01\n        /* \"#utility.yul\":10742:10747   */\n      dup2\n        /* \"#utility.yul\":10738:10751   */\n      add\n        /* \"#utility.yul\":10729:10751   */\n      swap1\n      pop\n        /* \"#utility.yul\":10705:10825   */\n      jump(tag_253)\n    tag_255:\n        /* \"#utility.yul\":10645:10831   */\n      pop\n      pop\n      jump\t// out\n        /* \"#utility.yul\":10837:11380   */\n    tag_121:\n        /* \"#utility.yul\":10938:10940   */\n      0x1f\n        /* \"#utility.yul\":10933:10936   */\n      dup3\n        /* \"#utility.yul\":10930:10941   */\n      gt\n        /* \"#utility.yul\":10927:11373   */\n      iszero\n      tag_258\n      jumpi\n        /* \"#utility.yul\":10972:11010   */\n      tag_259\n        /* \"#utility.yul\":11004:11009   */\n      dup2\n        /* \"#utility.yul\":10972:11010   */\n      tag_110\n      jump\t// in\n    tag_259:\n        /* \"#utility.yul\":11056:11085   */\n      tag_260\n        /* \"#utility.yul\":11074:11084   */\n      dup5\n        /* \"#utility.yul\":11056:11085   */\n      tag_111\n      jump\t// in\n    tag_260:\n        /* \"#utility.yul\":11046:11054   */\n      dup2\n        /* \"#utility.yul\":11042:11086   */\n      add\n        /* \"#utility.yul\":11239:11241   */\n      0x20\n        /* \"#utility.yul\":11227:11237   */\n      dup6\n        /* \"#utility.yul\":11224:11242   */\n      lt\n        /* \"#utility.yul\":11221:11270   */\n      iszero\n      tag_261\n      jumpi\n        /* \"#utility.yul\":11260:11268   */\n      dup2\n        /* \"#utility.yul\":11245:11268   */\n      swap1\n      pop\n        /* \"#utility.yul\":11221:11270   */\n    tag_261:\n        /* \"#utility.yul\":11283:11363   */\n      tag_262\n        /* \"#utility.yul\":11339:11361   */\n      tag_263\n        /* \"#utility.yul\":11357:11360   */\n      dup6\n        /* \"#utility.yul\":11339:11361   */\n      tag_111\n      jump\t// in\n    tag_263:\n        /* \"#utility.yul\":11329:11337   */\n      dup4\n        /* \"#utility.yul\":11325:11362   */\n      add\n        /* \"#utility.yul\":11312:11323   */\n      dup3\n        /* \"#utility.yul\":11283:11363   */\n      tag_120\n      jump\t// in\n    tag_262:\n        /* \"#utility.yul\":10942:11373   */\n      pop\n      pop\n        /* \"#utility.yul\":10927:11373   */\n    tag_258:\n        /* \"#utility.yul\":10837:11380   */\n      pop\n      pop\n      pop\n      jump\t// out\n        /* \"#utility.yul\":11386:11503   */\n    tag_122:\n        /* \"#utility.yul\":11440:11448   */\n      0x00\n        /* \"#utility.yul\":11490:11495   */\n      dup3\n        /* \"#utility.yul\":11484:11488   */\n      dup3\n        /* \"#utility.yul\":11480:11496   */\n      shr\n        /* \"#utility.yul\":11459:11496   */\n      swap1\n      pop\n        /* \"#utility.yul\":11386:11503   */\n      swap3\n      swap2\n      pop\n      pop\n      jump\t// out\n        /* \"#utility.yul\":11509:11678   */\n    tag_123:\n        /* \"#utility.yul\":11553:11559   */\n      0x00\n        /* \"#utility.yul\":11586:11637   */\n      tag_266\n        /* \"#utility.yul\":11634:11635   */\n      0x00\n        /* \"#utility.yul\":11630:11636   */\n      not\n        /* \"#utility.yul\":11622:11627   */\n      dup5\n        /* \"#utility.yul\":11619:11620   */\n      0x08\n        /* \"#utility.yul\":11615:11628   */\n      mul\n        /* \"#utility.yul\":11586:11637   */\n      tag_122\n      jump\t// in\n    tag_266:\n        /* \"#utility.yul\":11582:11638   */\n      not\n        /* \"#utility.yul\":11667:11671   */\n      dup1\n        /* \"#utility.yul\":11661:11665   */\n      dup4\n        /* \"#utility.yul\":11657:11672   */\n      and\n        /* \"#utility.yul\":11647:11672   */\n      swap2\n      pop\n        /* \"#utility.yul\":11560:11678   */\n      pop\n        /* \"#utility.yul\":11509:11678   */\n      swap3\n      swap2\n      pop\n      pop\n      jump\t// out\n        /* \"#utility.yul\":11683:11978   */\n    tag_124:\n        /* \"#utility.yul\":11759:11763   */\n      0x00\n        /* \"#utility.yul\":11905:11934   */\n      tag_268\n        /* \"#utility.yul\":11930:11933   */\n      dup4\n        /* \"#utility.yul\":11924:11928   */\n      dup4\n        /* \"#utility.yul\":11905:11934   */\n      tag_123\n      jump\t// in\n    tag_268:\n        /* \"#utility.yul\":11897:11934   */\n      swap2\n      pop\n        /* \"#utility.yul\":11967:11970   */\n      dup3\n        /* \"#utility.yul\":11964:11965   */\n      0x02\n        /* \"#utility.yul\":11960:11971   */\n      mul\n        /* \"#utility.yul\":11954:11958   */\n      dup3\n        /* \"#utility.yul\":11951:11972   */\n      or\n        /* \"#utility.yul\":11943:11972   */\n      swap1\n      pop\n        /* \"#utility.yul\":11683:11978   */\n      swap3\n      swap2\n      pop\n      pop\n      jump\t// out\n        /* \"#utility.yul\":11983:13378   */\n    tag_71:\n        /* \"#utility.yul\":12100:12137   */\n      tag_270\n        /* \"#utility.yul\":12133:12136   */\n      dup3\n        /* \"#utility.yul\":12100:12137   */\n      tag_92\n      jump\t// in\n    tag_270:\n        /* \"#utility.yul\":12202:12220   */\n      0xffffffffffffffff\n        /* \"#utility.yul\":12194:12200   */\n      dup2\n        /* \"#utility.yul\":12191:12221   */\n      gt\n        /* \"#utility.yul\":12188:12244   */\n      iszero\n      tag_271\n      jumpi\n        /* \"#utility.yul\":12224:12242   */\n      tag_272\n      tag_100\n      jump\t// in\n    tag_272:\n        /* \"#utility.yul\":12188:12244   */\n    tag_271:\n        /* \"#utility.yul\":12268:12306   */\n      tag_273\n        /* \"#utility.yul\":12300:12304   */\n      dup3\n        /* \"#utility.yul\":12294:12305   */\n      sload\n        /* \"#utility.yul\":12268:12306   */\n      tag_60\n      jump\t// in\n    tag_273:\n        /* \"#utility.yul\":12353:12420   */\n      tag_274\n        /* \"#utility.yul\":12413:12419   */\n      dup3\n        /* \"#utility.yul\":12405:12411   */\n      dup3\n        /* \"#utility.yul\":12399:12403   */\n      dup6\n        /* \"#utility.yul\":12353:12420   */\n      tag_121\n      jump\t// in\n    tag_274:\n        /* \"#utility.yul\":12447:12448   */\n      0x00\n        /* \"#utility.yul\":12471:12475   */\n      0x20\n        /* \"#utility.yul\":12458:12475   */\n      swap1\n      pop\n        /* \"#utility.yul\":12503:12505   */\n      0x1f\n        /* \"#utility.yul\":12495:12501   */\n      dup4\n        /* \"#utility.yul\":12492:12506   */\n      gt\n        /* \"#utility.yul\":12520:12521   */\n      0x01\n        /* \"#utility.yul\":12515:13133   */\n      dup2\n      eq\n      tag_276\n      jumpi\n        /* \"#utility.yul\":13177:13178   */\n      0x00\n        /* \"#utility.yul\":13194:13200   */\n      dup5\n        /* \"#utility.yul\":13191:13268   */\n      iszero\n      tag_277\n      jumpi\n        /* \"#utility.yul\":13243:13252   */\n      dup3\n        /* \"#utility.yul\":13238:13241   */\n      dup8\n        /* \"#utility.yul\":13234:13253   */\n      add\n        /* \"#utility.yul\":13228:13254   */\n      mload\n        /* \"#utility.yul\":13219:13254   */\n      swap1\n      pop\n        /* \"#utility.yul\":13191:13268   */\n    tag_277:\n        /* \"#utility.yul\":13294:13361   */\n      tag_278\n        /* \"#utility.yul\":13354:13360   */\n      dup6\n        /* \"#utility.yul\":13347:13352   */\n      dup3\n        /* \"#utility.yul\":13294:13361   */\n      tag_124\n      jump\t// in\n    tag_278:\n        /* \"#utility.yul\":13288:13292   */\n      dup7\n        /* \"#utility.yul\":13281:13362   */\n      sstore\n        /* \"#utility.yul\":13150:13372   */\n      pop\n        /* \"#utility.yul\":12485:13372   */\n      jump(tag_275)\n        /* \"#utility.yul\":12515:13133   */\n    tag_276:\n        /* \"#utility.yul\":12567:12571   */\n      0x1f\n        /* \"#utility.yul\":12563:12572   */\n      not\n        /* \"#utility.yul\":12555:12561   */\n      dup5\n        /* \"#utility.yul\":12551:12573   */\n      and\n        /* \"#utility.yul\":12601:12638   */\n      tag_279\n        /* \"#utility.yul\":12633:12637   */\n      dup7\n        /* \"#utility.yul\":12601:12638   */\n      tag_110\n      jump\t// in\n    tag_279:\n        /* \"#utility.yul\":12660:12661   */\n      0x00\n        /* \"#utility.yul\":12674:12882   */\n    tag_280:\n        /* \"#utility.yul\":12688:12695   */\n      dup3\n        /* \"#utility.yul\":12685:12686   */\n      dup2\n        /* \"#utility.yul\":12682:12696   */\n      lt\n        /* \"#utility.yul\":12674:12882   */\n      iszero\n      tag_282\n      jumpi\n        /* \"#utility.yul\":12767:12776   */\n      dup5\n        /* \"#utility.yul\":12762:12765   */\n      dup10\n        /* \"#utility.yul\":12758:12777   */\n      add\n        /* \"#utility.yul\":12752:12778   */\n      mload\n        /* \"#utility.yul\":12744:12750   */\n      dup3\n        /* \"#utility.yul\":12737:12779   */\n      sstore\n        /* \"#utility.yul\":12818:12819   */\n      0x01\n        /* \"#utility.yul\":12810:12816   */\n      dup3\n        /* \"#utility.yul\":12806:12820   */\n      add\n        /* \"#utility.yul\":12796:12820   */\n      swap2\n      pop\n        /* \"#utility.yul\":12865:12867   */\n      0x20\n        /* \"#utility.yul\":12854:12863   */\n      dup6\n        /* \"#utility.yul\":12850:12868   */\n      add\n        /* \"#utility.yul\":12837:12868   */\n      swap5\n      pop\n        /* \"#utility.yul\":12711:12715   */\n      0x20\n        /* \"#utility.yul\":12708:12709   */\n      dup2\n        /* \"#utility.yul\":12704:12716   */\n      add\n        /* \"#utility.yul\":12699:12716   */\n      swap1\n      pop\n        /* \"#utility.yul\":12674:12882   */\n      jump(tag_280)\n    tag_282:\n        /* \"#utility.yul\":12910:12916   */\n      dup7\n        /* \"#utility.yul\":12901:12908   */\n      dup4\n        /* \"#utility.yul\":12898:12917   */\n      lt\n        /* \"#utility.yul\":12895:13074   */\n      iszero\n      tag_283\n      jumpi\n        /* \"#utility.yul\":12968:12977   */\n      dup5\n        /* \"#utility.yul\":12963:12966   */\n      dup10\n        /* \"#utility.yul\":12959:12978   */\n      add\n        /* \"#utility.yul\":12953:12979   */\n      mload\n        /* \"#utility.yul\":13011:13059   */\n      tag_284\n        /* \"#utility.yul\":13053:13057   */\n      0x1f\n        /* \"#utility.yul\":13045:13051   */\n      dup10\n        /* \"#utility.yul\":13041:13058   */\n      and\n        /* \"#utility.yul\":13030:13039   */\n      dup3\n        /* \"#utility.yul\":13011:13059   */\n      tag_123\n      jump\t// in\n    tag_284:\n        /* \"#utility.yul\":13003:13009   */\n      dup4\n        /* \"#utility.yul\":12996:13060   */\n      sstore\n        /* \"#utility.yul\":12918:13074   */\n      pop\n        /* \"#utility.yul\":12895:13074   */\n    tag_283:\n        /* \"#utility.yul\":13120:13121   */\n      0x01\n        /* \"#utility.yul\":13116:13117   */\n      0x02\n        /* \"#utility.yul\":13108:13114   */\n      dup9\n        /* \"#utility.yul\":13104:13118   */\n      mul\n        /* \"#utility.yul\":13100:13122   */\n      add\n        /* \"#utility.yul\":13094:13098   */\n      dup9\n        /* \"#utility.yul\":13087:13123   */\n      sstore\n        /* \"#utility.yul\":12522:13133   */\n      pop\n      pop\n      pop\n        /* \"#utility.yul\":12485:13372   */\n    tag_275:\n      pop\n        /* \"#utility.yul\":12075:13378   */\n      pop\n      pop\n      pop\n        /* \"#utility.yul\":11983:13378   */\n      pop\n      pop\n      jump\t// out\n\n    auxdata: 0xa26469706673582212200cf05c7655de0eebd173bdcff75e4e366f8c8ad835242eb5b6d5978e603294fa64736f6c634300080f0033\n}\n",
    "bytecode": {
      "linkReferences": {},
      "object": "60806040523480156200001157600080fd5b50604051620010b9380380620010b983398181016040528101906200003791906200013c565b80600260006101000a81548173ffffffffffffffffffffffffffffffffffffffff021916908373ffffffffffffffffffffffffffffffffffffffff1602179055508160038190555060006001819055506000600581905550505062000183565b600080fd5b6000819050919050565b620000b1816200009c565b8114620000bd57600080fd5b50565b600081519050620000d181620000a6565b92915050565b600073ffffffffffffffffffffffffffffffffffffffff82169050919050565b60006200010482620000d7565b9050919050565b6200011681620000f7565b81146200012257600080fd5b50565b60008151905062000136816200010b565b92915050565b6000806040838503121562000156576200015562000097565b5b60006200016685828601620000c0565b9250506020620001798582860162000125565b9150509250929050565b610f2680620001936000396000f3fe60806040526004361061007b5760003560e01c80638a9cfd551161004e5780638a9cfd5514610152578063937e09b11461017b578063d7bb99ba146101a6578063d7d1bbdb146101b05761007b565b806303441006146100805780630a144391146100a9578063481c6a75146100e657806381d12c5814610111575b600080fd5b34801561008c57600080fd5b506100a760048036038101906100a29190610762565b6101d9565b005b3480156100b557600080fd5b506100d060048036038101906100cb91906107ed565b610313565b6040516100dd9190610835565b60405180910390f35b3480156100f257600080fd5b506100fb610333565b604051610108919061085f565b60405180910390f35b34801561011d57600080fd5b5061013860048036038101906101339190610762565b610359565b604051610149959493929190610922565b60405180910390f35b34801561015e57600080fd5b5061017960048036038101906101749190610ab1565b610444565b005b34801561018757600080fd5b50610190610555565b60405161019d9190610b20565b60405180910390f35b6101ae61055b565b005b3480156101bc57600080fd5b506101d760048036038101906101d29190610762565b6105db565b005b600260009054906101000a900473ffffffffffffffffffffffffffffffffffffffff1673ffffffffffffffffffffffffffffffffffffffff163373ffffffffffffffffffffffffffffffffffffffff161461023357600080fd5b6000806000838152602001908152602001600020905060026005546102589190610b99565b81600301541161026757600080fd5b8060020160149054906101000a900460ff161561028357600080fd5b8060020160009054906101000a900473ffffffffffffffffffffffffffffffffffffffff1673ffffffffffffffffffffffffffffffffffffffff166108fc82600101549081150290604051600060405180830381858888f193505050501580156102f1573d6000803e3d6000fd5b5060018160020160146101000a81548160ff0219169083151502179055505050565b60046020528060005260406000206000915054906101000a900460ff1681565b600260009054906101000a900473ffffffffffffffffffffffffffffffffffffffff1681565b600060205280600052604060002060009150905080600001805461037c90610bf9565b80601f01602080910402602001604051908101604052809291908181526020018280546103a890610bf9565b80156103f55780601f106103ca576101008083540402835291602001916103f5565b820191906000526020600020905b8154815290600101906020018083116103d857829003601f168201915b5050505050908060010154908060020160009054906101000a900473ffffffffffffffffffffffffffffffffffffffff16908060020160149054906101000a900460ff16908060030154905085565b600260009054906101000a900473ffffffffffffffffffffffffffffffffffffffff1673ffffffffffffffffffffffffffffffffffffffff163373ffffffffffffffffffffffffffffffffffffffff161461049e57600080fd5b6000806000600160008154809291906104b690610c2a565b9190505581526020019081526020016000209050838160000190816104db9190610e1e565b50828160010181905550818160020160006101000a81548173ffffffffffffffffffffffffffffffffffffffff021916908373ffffffffffffffffffffffffffffffffffffffff16021790555060008160020160146101000a81548160ff0219169083151502179055506000816003018190555050505050565b60035481565b600354341161056957600080fd5b6001600460003373ffffffffffffffffffffffffffffffffffffffff1673ffffffffffffffffffffffffffffffffffffffff16815260200190815260200160002060006101000a81548160ff021916908315150217905550600560008154809291906105d490610c2a565b9190505550565b60008060008381526020019081526020016000209050600460003373ffffffffffffffffffffffffffffffffffffffff1673ffffffffffffffffffffffffffffffffffffffff16815260200190815260200160002060009054906101000a900460ff1661064757600080fd5b8060040160003373ffffffffffffffffffffffffffffffffffffffff1673ffffffffffffffffffffffffffffffffffffffff16815260200190815260200160002060009054906101000a900460ff16156106a057600080fd5b60018160040160003373ffffffffffffffffffffffffffffffffffffffff1673ffffffffffffffffffffffffffffffffffffffff16815260200190815260200160002060006101000a81548160ff02191690831515021790555080600301600081548092919061070f90610c2a565b91905055505050565b6000604051905090565b600080fd5b600080fd5b6000819050919050565b61073f8161072c565b811461074a57600080fd5b50565b60008135905061075c81610736565b92915050565b60006020828403121561077857610777610722565b5b60006107868482850161074d565b91505092915050565b600073ffffffffffffffffffffffffffffffffffffffff82169050919050565b60006107ba8261078f565b9050919050565b6107ca816107af565b81146107d557600080fd5b50565b6000813590506107e7816107c1565b92915050565b60006020828403121561080357610802610722565b5b6000610811848285016107d8565b91505092915050565b60008115159050919050565b61082f8161081a565b82525050565b600060208201905061084a6000830184610826565b92915050565b610859816107af565b82525050565b60006020820190506108746000830184610850565b92915050565b600081519050919050565b600082825260208201905092915050565b60005b838110156108b4578082015181840152602081019050610899565b838111156108c3576000848401525b50505050565b6000601f19601f8301169050919050565b60006108e58261087a565b6108ef8185610885565b93506108ff818560208601610896565b610908816108c9565b840191505092915050565b61091c8161072c565b82525050565b600060a082019050818103600083015261093c81886108da565b905061094b6020830187610913565b6109586040830186610850565b6109656060830185610826565b6109726080830184610913565b9695505050505050565b600080fd5b600080fd5b7f4e487b7100000000000000000000000000000000000000000000000000000000600052604160045260246000fd5b6109be826108c9565b810181811067ffffffffffffffff821117156109dd576109dc610986565b5b80604052505050565b60006109f0610718565b90506109fc82826109b5565b919050565b600067ffffffffffffffff821115610a1c57610a1b610986565b5b610a25826108c9565b9050602081019050919050565b82818337600083830152505050565b6000610a54610a4f84610a01565b6109e6565b905082815260208101848484011115610a7057610a6f610981565b5b610a7b848285610a32565b509392505050565b600082601f830112610a9857610a9761097c565b5b8135610aa8848260208601610a41565b91505092915050565b600080600060608486031215610aca57610ac9610722565b5b600084013567ffffffffffffffff811115610ae857610ae7610727565b5b610af486828701610a83565b9350506020610b058682870161074d565b9250506040610b16868287016107d8565b9150509250925092565b6000602082019050610b356000830184610913565b92915050565b7f4e487b7100000000000000000000000000000000000000000000000000000000600052601260045260246000fd5b7f4e487b7100000000000000000000000000000000000000000000000000000000600052601160045260246000fd5b6000610ba48261072c565b9150610baf8361072c565b925082610bbf57610bbe610b3b565b5b828204905092915050565b7f4e487b7100000000000000000000000000000000000000000000000000000000600052602260045260246000fd5b60006002820490506001821680610c1157607f821691505b602082108103610c2457610c23610bca565b5b50919050565b6000610c358261072c565b91507fffffffffffffffffffffffffffffffffffffffffffffffffffffffffffffffff8203610c6757610c66610b6a565b5b600182019050919050565b60008190508160005260206000209050919050565b60006020601f8301049050919050565b600082821b905092915050565b600060088302610cd47fffffffffffffffffffffffffffffffffffffffffffffffffffffffffffffffff82610c97565b610cde8683610c97565b95508019841693508086168417925050509392505050565b6000819050919050565b6000610d1b610d16610d118461072c565b610cf6565b61072c565b9050919050565b6000819050919050565b610d3583610d00565b610d49610d4182610d22565b848454610ca4565b825550505050565b600090565b610d5e610d51565b610d69818484610d2c565b505050565b5b81811015610d8d57610d82600082610d56565b600181019050610d6f565b5050565b601f821115610dd257610da381610c72565b610dac84610c87565b81016020851015610dbb578190505b610dcf610dc785610c87565b830182610d6e565b50505b505050565b600082821c905092915050565b6000610df560001984600802610dd7565b1980831691505092915050565b6000610e0e8383610de4565b9150826002028217905092915050565b610e278261087a565b67ffffffffffffffff811115610e4057610e3f610986565b5b610e4a8254610bf9565b610e55828285610d91565b600060209050601f831160018114610e885760008415610e76578287015190505b610e808582610e02565b865550610ee8565b601f198416610e9686610c72565b60005b82811015610ebe57848901518255600182019150602085019450602081019050610e99565b86831015610edb5784890151610ed7601f891682610de4565b8355505b6001600288020188555050505b50505050505056fea26469706673582212200cf05c7655de0eebd173bdcff75e4e366f8c8ad835242eb5b6d5978e603294fa64736f6c634300080f0033",
      "opcodes": "PUSH1 0x80 PUSH1 0x40 MSTORE CALLVALUE DUP1 ISZERO PUSH3 0x11 JUMPI PUSH1 0x0 DUP1 REVERT JUMPDEST POP PUSH1 0x40 MLOAD PUSH3 0x10B9 CODESIZE SUB DUP1 PUSH3 0x10B9 DUP4 CODECOPY DUP2 DUP2 ADD PUSH1 0x40 MSTORE DUP2 ADD SWAP1 PUSH3 0x37 SWAP2 SWAP1 PUSH3 0x13C JUMP JUMPDEST DUP1 PUSH1 0x2 PUSH1 0x0 PUSH2 0x100 EXP DUP2 SLOAD DUP2 PUSH20 0xFFFFFFFFFFFFFFFFFFFFFFFFFFFFFFFFFFFFFFFF MUL NOT AND SWAP1 DUP4 PUSH20 0xFFFFFFFFFFFFFFFFFFFFFFFFFFFFFFFFFFFFFFFF AND MUL OR SWAP1 SSTORE POP DUP2 PUSH1 0x3 DUP2 SWAP1 SSTORE POP PUSH1 0x0 PUSH1 0x1 DUP2 SWAP1 SSTORE POP PUSH1 0x0 PUSH1 0x5 DUP2 SWAP1 SSTORE POP POP POP PUSH3 0x183 JUMP JUMPDEST PUSH1 0x0 DUP1 REVERT JUMPDEST PUSH1 0x0 DUP2 SWAP1 POP SWAP2 SWAP1 POP JUMP JUMPDEST PUSH3 0xB1 DUP2 PUSH3 0x9C JUMP JUMPDEST DUP2 EQ PUSH3 0xBD JUMPI PUSH1 0x0 DUP1 REVERT JUMPDEST POP JUMP JUMPDEST PUSH1 0x0 DUP2 MLOAD SWAP1 POP PUSH3 0xD1 DUP2 PUSH3 0xA6 JUMP JUMPDEST SWAP3 SWAP2 POP POP JUMP JUMPDEST PUSH1 0x0 PUSH20 0xFFFFFFFFFFFFFFFFFFFFFFFFFFFFFFFFFFFFFFFF DUP3 AND SWAP1 POP SWAP2 SWAP1 POP JUMP JUMPDEST PUSH1 0x0 PUSH3 0x104 DUP3 PUSH3 0xD7 JUMP JUMPDEST SWAP1 POP SWAP2 SWAP1 POP JUMP JUMPDEST PUSH3 0x116 DUP2 PUSH3 0xF7 JUMP JUMPDEST DUP2 EQ PUSH3 0x122 JUMPI PUSH1 0x0 DUP1 REVERT JUMPDEST POP JUMP JUMPDEST PUSH1 0x0 DUP2 MLOAD SWAP1 POP PUSH3 0x136 DUP2 PUSH3 0x10B JUMP JUMPDEST SWAP3 SWAP2 POP POP JUMP JUMPDEST PUSH1 0x0 DUP1 PUSH1 0x40 DUP4 DUP6 SUB SLT ISZERO PUSH3 0x156 JUMPI PUSH3 0x155 PUSH3 0x97 JUMP JUMPDEST JUMPDEST PUSH1 0x0 PUSH3 0x166 DUP6 DUP3 DUP7 ADD PUSH3 0xC0 JUMP JUMPDEST SWAP3 POP POP PUSH1 0x20 PUSH3 0x179 DUP6 DUP3 DUP7 ADD PUSH3 0x125 JUMP JUMPDEST SWAP2 POP POP SWAP3 POP SWAP3 SWAP1 POP JUMP JUMPDEST PUSH2 0xF26 DUP1 PUSH3 0x193 PUSH1 0x0 CODECOPY PUSH1 0x0 RETURN INVALID PUSH1 0x80 PUSH1 0x40 MSTORE PUSH1 0x4 CALLDATASIZE LT PUSH2 0x7B JUMPI PUSH1 0x0 CALLDATALOAD PUSH1 0xE0 SHR DUP1 PUSH4 0x8A9CFD55 GT PUSH2 0x4E JUMPI DUP1 PUSH4 0x8A9CFD55 EQ PUSH2 0x152 JUMPI DUP1 PUSH4 0x937E09B1 EQ PUSH2 0x17B JUMPI DUP1 PUSH4 0xD7BB99BA EQ PUSH2 0x1A6 JUMPI DUP1 PUSH4 0xD7D1BBDB EQ PUSH2 0x1B0 JUMPI PUSH2 0x7B JUMP JUMPDEST DUP1 PUSH4 0x3441006 EQ PUSH2 0x80 JUMPI DUP1 PUSH4 0xA144391 EQ PUSH2 0xA9 JUMPI DUP1 PUSH4 0x481C6A75 EQ PUSH2 0xE6 JUMPI DUP1 PUSH4 0x81D12C58 EQ PUSH2 0x111 JUMPI JUMPDEST PUSH1 0x0 DUP1 REVERT JUMPDEST CALLVALUE DUP1 ISZERO PUSH2 0x8C JUMPI PUSH1 0x0 DUP1 REVERT JUMPDEST POP PUSH2 0xA7 PUSH1 0x4 DUP1 CALLDATASIZE SUB DUP2 ADD SWAP1 PUSH2 0xA2 SWAP2 SWAP1 PUSH2 0x762 JUMP JUMPDEST PUSH2 0x1D9 JUMP JUMPDEST STOP JUMPDEST CALLVALUE DUP1 ISZERO PUSH2 0xB5 JUMPI PUSH1 0x0 DUP1 REVERT JUMPDEST POP PUSH2 0xD0 PUSH1 0x4 DUP1 CALLDATASIZE SUB DUP2 ADD SWAP1 PUSH2 0xCB SWAP2 SWAP1 PUSH2 0x7ED JUMP JUMPDEST PUSH2 0x313 JUMP JUMPDEST PUSH1 0x40 MLOAD PUSH2 0xDD SWAP2 SWAP1 PUSH2 0x835 JUMP JUMPDEST PUSH1 0x40 MLOAD DUP1 SWAP2 SUB SWAP1 RETURN JUMPDEST CALLVALUE DUP1 ISZERO PUSH2 0xF2 JUMPI PUSH1 0x0 DUP1 REVERT JUMPDEST POP PUSH2 0xFB PUSH2 0x333 JUMP JUMPDEST PUSH1 0x40 MLOAD PUSH2 0x108 SWAP2 SWAP1 PUSH2 0x85F JUMP JUMPDEST PUSH1 0x40 MLOAD DUP1 SWAP2 SUB SWAP1 RETURN JUMPDEST CALLVALUE DUP1 ISZERO PUSH2 0x11D JUMPI PUSH1 0x0 DUP1 REVERT JUMPDEST POP PUSH2 0x138 PUSH1 0x4 DUP1 CALLDATASIZE SUB DUP2 ADD SWAP1 PUSH2 0x133 SWAP2 SWAP1 PUSH2 0x762 JUMP JUMPDEST PUSH2 0x359 JUMP JUMPDEST PUSH1 0x40 MLOAD PUSH2 0x149 SWAP6 SWAP5 SWAP4 SWAP3 SWAP2 SWAP1 PUSH2 0x922 JUMP JUMPDEST PUSH1 0x40 MLOAD DUP1 SWAP2 SUB SWAP1 RETURN JUMPDEST CALLVALUE DUP1 ISZERO PUSH2 0x15E JUMPI PUSH1 0x0 DUP1 REVERT JUMPDEST POP PUSH2 0x179 PUSH1 0x4 DUP1 CALLDATASIZE SUB DUP2 ADD SWAP1 PUSH2 0x174 SWAP2 SWAP1 PUSH2 0xAB1 JUMP JUMPDEST PUSH2 0x444 JUMP JUMPDEST STOP JUMPDEST CALLVALUE DUP1 ISZERO PUSH2 0x187 JUMPI PUSH1 0x0 DUP1 REVERT JUMPDEST POP PUSH2 0x190 PUSH2 0x555 JUMP JUMPDEST PUSH1 0x40 MLOAD PUSH2 0x19D SWAP2 SWAP1 PUSH2 0xB20 JUMP JUMPDEST PUSH1 0x40 MLOAD DUP1 SWAP2 SUB SWAP1 RETURN JUMPDEST PUSH2 0x1AE PUSH2 0x55B JUMP JUMPDEST STOP JUMPDEST CALLVALUE DUP1 ISZERO PUSH2 0x1BC JUMPI PUSH1 0x0 DUP1 REVERT JUMPDEST POP PUSH2 0x1D7 PUSH1 0x4 DUP1 CALLDATASIZE SUB DUP2 ADD SWAP1 PUSH2 0x1D2 SWAP2 SWAP1 PUSH2 0x762 JUMP JUMPDEST PUSH2 0x5DB JUMP JUMPDEST STOP JUMPDEST PUSH1 0x2 PUSH1 0x0 SWAP1 SLOAD SWAP1 PUSH2 0x100 EXP SWAP1 DIV PUSH20 0xFFFFFFFFFFFFFFFFFFFFFFFFFFFFFFFFFFFFFFFF AND PUSH20 0xFFFFFFFFFFFFFFFFFFFFFFFFFFFFFFFFFFFFFFFF AND CALLER PUSH20 0xFFFFFFFFFFFFFFFFFFFFFFFFFFFFFFFFFFFFFFFF AND EQ PUSH2 0x233 JUMPI PUSH1 0x0 DUP1 REVERT JUMPDEST PUSH1 0x0 DUP1 PUSH1 0x0 DUP4 DUP2 MSTORE PUSH1 0x20 ADD SWAP1 DUP2 MSTORE PUSH1 0x20 ADD PUSH1 0x0 KECCAK256 SWAP1 POP PUSH1 0x2 PUSH1 0x5 SLOAD PUSH2 0x258 SWAP2 SWAP1 PUSH2 0xB99 JUMP JUMPDEST DUP2 PUSH1 0x3 ADD SLOAD GT PUSH2 0x267 JUMPI PUSH1 0x0 DUP1 REVERT JUMPDEST DUP1 PUSH1 0x2 ADD PUSH1 0x14 SWAP1 SLOAD SWAP1 PUSH2 0x100 EXP SWAP1 DIV PUSH1 0xFF AND ISZERO PUSH2 0x283 JUMPI PUSH1 0x0 DUP1 REVERT JUMPDEST DUP1 PUSH1 0x2 ADD PUSH1 0x0 SWAP1 SLOAD SWAP1 PUSH2 0x100 EXP SWAP1 DIV PUSH20 0xFFFFFFFFFFFFFFFFFFFFFFFFFFFFFFFFFFFFFFFF AND PUSH20 0xFFFFFFFFFFFFFFFFFFFFFFFFFFFFFFFFFFFFFFFF AND PUSH2 0x8FC DUP3 PUSH1 0x1 ADD SLOAD SWAP1 DUP2 ISZERO MUL SWAP1 PUSH1 0x40 MLOAD PUSH1 0x0 PUSH1 0x40 MLOAD DUP1 DUP4 SUB DUP2 DUP6 DUP9 DUP9 CALL SWAP4 POP POP POP POP ISZERO DUP1 ISZERO PUSH2 0x2F1 JUMPI RETURNDATASIZE PUSH1 0x0 DUP1 RETURNDATACOPY RETURNDATASIZE PUSH1 0x0 REVERT JUMPDEST POP PUSH1 0x1 DUP2 PUSH1 0x2 ADD PUSH1 0x14 PUSH2 0x100 EXP DUP2 SLOAD DUP2 PUSH1 0xFF MUL NOT AND SWAP1 DUP4 ISZERO ISZERO MUL OR SWAP1 SSTORE POP POP POP JUMP JUMPDEST PUSH1 0x4 PUSH1 0x20 MSTORE DUP1 PUSH1 0x0 MSTORE PUSH1 0x40 PUSH1 0x0 KECCAK256 PUSH1 0x0 SWAP2 POP SLOAD SWAP1 PUSH2 0x100 EXP SWAP1 DIV PUSH1 0xFF AND DUP2 JUMP JUMPDEST PUSH1 0x2 PUSH1 0x0 SWAP1 SLOAD SWAP1 PUSH2 0x100 EXP SWAP1 DIV PUSH20 0xFFFFFFFFFFFFFFFFFFFFFFFFFFFFFFFFFFFFFFFF AND DUP2 JUMP JUMPDEST PUSH1 0x0 PUSH1 0x20 MSTORE DUP1 PUSH1 0x0 MSTORE PUSH1 0x40 PUSH1 0x0 KECCAK256 PUSH1 0x0 SWAP2 POP SWAP1 POP DUP1 PUSH1 0x0 ADD DUP1 SLOAD PUSH2 0x37C SWAP1 PUSH2 0xBF9 JUMP JUMPDEST DUP1 PUSH1 0x1F ADD PUSH1 0x20 DUP1 SWAP2 DIV MUL PUSH1 0x20 ADD PUSH1 0x40 MLOAD SWAP1 DUP2 ADD PUSH1 0x40 MSTORE DUP1 SWAP3 SWAP2 SWAP1 DUP2 DUP2 MSTORE PUSH1 0x20 ADD DUP3 DUP1 SLOAD PUSH2 0x3A8 SWAP1 PUSH2 0xBF9 JUMP JUMPDEST DUP1 ISZERO PUSH2 0x3F5 JUMPI DUP1 PUSH1 0x1F LT PUSH2 0x3CA JUMPI PUSH2 0x100 DUP1 DUP4 SLOAD DIV MUL DUP4 MSTORE SWAP2 PUSH1 0x20 ADD SWAP2 PUSH2 0x3F5 JUMP JUMPDEST DUP3 ADD SWAP2 SWAP1 PUSH1 0x0 MSTORE PUSH1 0x20 PUSH1 0x0 KECCAK256 SWAP1 JUMPDEST DUP2 SLOAD DUP2 MSTORE SWAP1 PUSH1 0x1 ADD SWAP1 PUSH1 0x20 ADD DUP1 DUP4 GT PUSH2 0x3D8 JUMPI DUP3 SWAP1 SUB PUSH1 0x1F AND DUP3 ADD SWAP2 JUMPDEST POP POP POP POP POP SWAP1 DUP1 PUSH1 0x1 ADD SLOAD SWAP1 DUP1 PUSH1 0x2 ADD PUSH1 0x0 SWAP1 SLOAD SWAP1 PUSH2 0x100 EXP SWAP1 DIV PUSH20 0xFFFFFFFFFFFFFFFFFFFFFFFFFFFFFFFFFFFFFFFF AND SWAP1 DUP1 PUSH1 0x2 ADD PUSH1 0x14 SWAP1 SLOAD SWAP1 PUSH2 0x100 EXP SWAP1 DIV PUSH1 0xFF AND SWAP1 DUP1 PUSH1 0x3 ADD SLOAD SWAP1 POP DUP6 JUMP JUMPDEST PUSH1 0x2 PUSH1 0x0 SWAP1 SLOAD SWAP1 PUSH2 0x100 EXP SWAP1 DIV PUSH20 0xFFFFFFFFFFFFFFFFFFFFFFFFFFFFFFFFFFFFFFFF AND PUSH20 0xFFFFFFFFFFFFFFFFFFFFFFFFFFFFFFFFFFFFFFFF AND CALLER PUSH20 0xFFFFFFFFFFFFFFFFFFFFFFFFFFFFFFFFFFFFFFFF AND EQ PUSH2 0x49E JUMPI PUSH1 0x0 DUP1 REVERT JUMPDEST PUSH1 0x0 DUP1 PUSH1 0x0 PUSH1 0x1 PUSH1 0x0 DUP2 SLOAD DUP1 SWAP3 SWAP2 SWAP1 PUSH2 0x4B6 SWAP1 PUSH2 0xC2A JUMP JUMPDEST SWAP2 SWAP1 POP SSTORE DUP2 MSTORE PUSH1 0x20 ADD SWAP1 DUP2 MSTORE PUSH1 0x20 ADD PUSH1 0x0 KECCAK256 SWAP1 POP DUP4 DUP2 PUSH1 0x0 ADD SWAP1 DUP2 PUSH2 0x4DB SWAP2 SWAP1 PUSH2 0xE1E JUMP JUMPDEST POP DUP3 DUP2 PUSH1 0x1 ADD DUP2 SWAP1 SSTORE POP DUP2 DUP2 PUSH1 0x2 ADD PUSH1 0x0 PUSH2 0x100 EXP DUP2 SLOAD DUP2 PUSH20 0xFFFFFFFFFFFFFFFFFFFFFFFFFFFFFFFFFFFFFFFF MUL NOT AND SWAP1 DUP4 PUSH20 0xFFFFFFFFFFFFFFFFFFFFFFFFFFFFFFFFFFFFFFFF AND MUL OR SWAP1 SSTORE POP PUSH1 0x0 DUP2 PUSH1 0x2 ADD PUSH1 0x14 PUSH2 0x100 EXP DUP2 SLOAD DUP2 PUSH1 0xFF MUL NOT AND SWAP1 DUP4 ISZERO ISZERO MUL OR SWAP1 SSTORE POP PUSH1 0x0 DUP2 PUSH1 0x3 ADD DUP2 SWAP1 SSTORE POP POP POP POP POP JUMP JUMPDEST PUSH1 0x3 SLOAD DUP2 JUMP JUMPDEST PUSH1 0x3 SLOAD CALLVALUE GT PUSH2 0x569 JUMPI PUSH1 0x0 DUP1 REVERT JUMPDEST PUSH1 0x1 PUSH1 0x4 PUSH1 0x0 CALLER PUSH20 0xFFFFFFFFFFFFFFFFFFFFFFFFFFFFFFFFFFFFFFFF AND PUSH20 0xFFFFFFFFFFFFFFFFFFFFFFFFFFFFFFFFFFFFFFFF AND DUP2 MSTORE PUSH1 0x20 ADD SWAP1 DUP2 MSTORE PUSH1 0x20 ADD PUSH1 0x0 KECCAK256 PUSH1 0x0 PUSH2 0x100 EXP DUP2 SLOAD DUP2 PUSH1 0xFF MUL NOT AND SWAP1 DUP4 ISZERO ISZERO MUL OR SWAP1 SSTORE POP PUSH1 0x5 PUSH1 0x0 DUP2 SLOAD DUP1 SWAP3 SWAP2 SWAP1 PUSH2 0x5D4 SWAP1 PUSH2 0xC2A JUMP JUMPDEST SWAP2 SWAP1 POP SSTORE POP JUMP JUMPDEST PUSH1 0x0 DUP1 PUSH1 0x0 DUP4 DUP2 MSTORE PUSH1 0x20 ADD SWAP1 DUP2 MSTORE PUSH1 0x20 ADD PUSH1 0x0 KECCAK256 SWAP1 POP PUSH1 0x4 PUSH1 0x0 CALLER PUSH20 0xFFFFFFFFFFFFFFFFFFFFFFFFFFFFFFFFFFFFFFFF AND PUSH20 0xFFFFFFFFFFFFFFFFFFFFFFFFFFFFFFFFFFFFFFFF AND DUP2 MSTORE PUSH1 0x20 ADD SWAP1 DUP2 MSTORE PUSH1 0x20 ADD PUSH1 0x0 KECCAK256 PUSH1 0x0 SWAP1 SLOAD SWAP1 PUSH2 0x100 EXP SWAP1 DIV PUSH1 0xFF AND PUSH2 0x647 JUMPI PUSH1 0x0 DUP1 REVERT JUMPDEST DUP1 PUSH1 0x4 ADD PUSH1 0x0 CALLER PUSH20 0xFFFFFFFFFFFFFFFFFFFFFFFFFFFFFFFFFFFFFFFF AND PUSH20 0xFFFFFFFFFFFFFFFFFFFFFFFFFFFFFFFFFFFFFFFF AND DUP2 MSTORE PUSH1 0x20 ADD SWAP1 DUP2 MSTORE PUSH1 0x20 ADD PUSH1 0x0 KECCAK256 PUSH1 0x0 SWAP1 SLOAD SWAP1 PUSH2 0x100 EXP SWAP1 DIV PUSH1 0xFF AND ISZERO PUSH2 0x6A0 JUMPI PUSH1 0x0 DUP1 REVERT JUMPDEST PUSH1 0x1 DUP2 PUSH1 0x4 ADD PUSH1 0x0 CALLER PUSH20 0xFFFFFFFFFFFFFFFFFFFFFFFFFFFFFFFFFFFFFFFF AND PUSH20 0xFFFFFFFFFFFFFFFFFFFFFFFFFFFFFFFFFFFFFFFF AND DUP2 MSTORE PUSH1 0x20 ADD SWAP1 DUP2 MSTORE PUSH1 0x20 ADD PUSH1 0x0 KECCAK256 PUSH1 0x0 PUSH2 0x100 EXP DUP2 SLOAD DUP2 PUSH1 0xFF MUL NOT AND SWAP1 DUP4 ISZERO ISZERO MUL OR SWAP1 SSTORE POP DUP1 PUSH1 0x3 ADD PUSH1 0x0 DUP2 SLOAD DUP1 SWAP3 SWAP2 SWAP1 PUSH2 0x70F SWAP1 PUSH2 0xC2A JUMP JUMPDEST SWAP2 SWAP1 POP SSTORE POP POP POP JUMP JUMPDEST PUSH1 0x0 PUSH1 0x40 MLOAD SWAP1 POP SWAP1 JUMP JUMPDEST PUSH1 0x0 DUP1 REVERT JUMPDEST PUSH1 0x0 DUP1 REVERT JUMPDEST PUSH1 0x0 DUP2 SWAP1 POP SWAP2 SWAP1 POP JUMP JUMPDEST PUSH2 0x73F DUP2 PUSH2 0x72C JUMP JUMPDEST DUP2 EQ PUSH2 0x74A JUMPI PUSH1 0x0 DUP1 REVERT JUMPDEST POP JUMP JUMPDEST PUSH1 0x0 DUP2 CALLDATALOAD SWAP1 POP PUSH2 0x75C DUP2 PUSH2 0x736 JUMP JUMPDEST SWAP3 SWAP2 POP POP JUMP JUMPDEST PUSH1 0x0 PUSH1 0x20 DUP3 DUP5 SUB SLT ISZERO PUSH2 0x778 JUMPI PUSH2 0x777 PUSH2 0x722 JUMP JUMPDEST JUMPDEST PUSH1 0x0 PUSH2 0x786 DUP5 DUP3 DUP6 ADD PUSH2 0x74D JUMP JUMPDEST SWAP2 POP POP SWAP3 SWAP2 POP POP JUMP JUMPDEST PUSH1 0x0 PUSH20 0xFFFFFFFFFFFFFFFFFFFFFFFFFFFFFFFFFFFFFFFF DUP3 AND SWAP1 POP SWAP2 SWAP1 POP JUMP JUMPDEST PUSH1 0x0 PUSH2 0x7BA DUP3 PUSH2 0x78F JUMP JUMPDEST SWAP1 POP SWAP2 SWAP1 POP JUMP JUMPDEST PUSH2 0x7CA DUP2 PUSH2 0x7AF JUMP JUMPDEST DUP2 EQ PUSH2 0x7D5 JUMPI PUSH1 0x0 DUP1 REVERT JUMPDEST POP JUMP JUMPDEST PUSH1 0x0 DUP2 CALLDATALOAD SWAP1 POP PUSH2 0x7E7 DUP2 PUSH2 0x7C1 JUMP JUMPDEST SWAP3 SWAP2 POP POP JUMP JUMPDEST PUSH1 0x0 PUSH1 0x20 DUP3 DUP5 SUB SLT ISZERO PUSH2 0x803 JUMPI PUSH2 0x802 PUSH2 0x722 JUMP JUMPDEST JUMPDEST PUSH1 0x0 PUSH2 0x811 DUP5 DUP3 DUP6 ADD PUSH2 0x7D8 JUMP JUMPDEST SWAP2 POP POP SWAP3 SWAP2 POP POP JUMP JUMPDEST PUSH1 0x0 DUP2 ISZERO ISZERO SWAP1 POP SWAP2 SWAP1 POP JUMP JUMPDEST PUSH2 0x82F DUP2 PUSH2 0x81A JUMP JUMPDEST DUP3 MSTORE POP POP JUMP JUMPDEST PUSH1 0x0 PUSH1 0x20 DUP3 ADD SWAP1 POP PUSH2 0x84A PUSH1 0x0 DUP4 ADD DUP5 PUSH2 0x826 JUMP JUMPDEST SWAP3 SWAP2 POP POP JUMP JUMPDEST PUSH2 0x859 DUP2 PUSH2 0x7AF JUMP JUMPDEST DUP3 MSTORE POP POP JUMP JUMPDEST PUSH1 0x0 PUSH1 0x20 DUP3 ADD SWAP1 POP PUSH2 0x874 PUSH1 0x0 DUP4 ADD DUP5 PUSH2 0x850 JUMP JUMPDEST SWAP3 SWAP2 POP POP JUMP JUMPDEST PUSH1 0x0 DUP2 MLOAD SWAP1 POP SWAP2 SWAP1 POP JUMP JUMPDEST PUSH1 0x0 DUP3 DUP3 MSTORE PUSH1 0x20 DUP3 ADD SWAP1 POP SWAP3 SWAP2 POP POP JUMP JUMPDEST PUSH1 0x0 JUMPDEST DUP4 DUP2 LT ISZERO PUSH2 0x8B4 JUMPI DUP1 DUP3 ADD MLOAD DUP2 DUP5 ADD MSTORE PUSH1 0x20 DUP2 ADD SWAP1 POP PUSH2 0x899 JUMP JUMPDEST DUP4 DUP2 GT ISZERO PUSH2 0x8C3 JUMPI PUSH1 0x0 DUP5 DUP5 ADD MSTORE JUMPDEST POP POP POP POP JUMP JUMPDEST PUSH1 0x0 PUSH1 0x1F NOT PUSH1 0x1F DUP4 ADD AND SWAP1 POP SWAP2 SWAP1 POP JUMP JUMPDEST PUSH1 0x0 PUSH2 0x8E5 DUP3 PUSH2 0x87A JUMP JUMPDEST PUSH2 0x8EF DUP2 DUP6 PUSH2 0x885 JUMP JUMPDEST SWAP4 POP PUSH2 0x8FF DUP2 DUP6 PUSH1 0x20 DUP7 ADD PUSH2 0x896 JUMP JUMPDEST PUSH2 0x908 DUP2 PUSH2 0x8C9 JUMP JUMPDEST DUP5 ADD SWAP2 POP POP SWAP3 SWAP2 POP POP JUMP JUMPDEST PUSH2 0x91C DUP2 PUSH2 0x72C JUMP JUMPDEST DUP3 MSTORE POP POP JUMP JUMPDEST PUSH1 0x0 PUSH1 0xA0 DUP3 ADD SWAP1 POP DUP2 DUP2 SUB PUSH1 0x0 DUP4 ADD MSTORE PUSH2 0x93C DUP2 DUP9 PUSH2 0x8DA JUMP JUMPDEST SWAP1 POP PUSH2 0x94B PUSH1 0x20 DUP4 ADD DUP8 PUSH2 0x913 JUMP JUMPDEST PUSH2 0x958 PUSH1 0x40 DUP4 ADD DUP7 PUSH2 0x850 JUMP JUMPDEST PUSH2 0x965 PUSH1 0x60 DUP4 ADD DUP6 PUSH2 0x826 JUMP JUMPDEST PUSH2 0x972 PUSH1 0x80 DUP4 ADD DUP5 PUSH2 0x913 JUMP JUMPDEST SWAP7 SWAP6 POP POP POP POP POP POP JUMP JUMPDEST PUSH1 0x0 DUP1 REVERT JUMPDEST PUSH1 0x0 DUP1 REVERT JUMPDEST PUSH32 0x4E487B7100000000000000000000000000000000000000000000000000000000 PUSH1 0x0 MSTORE PUSH1 0x41 PUSH1 0x4 MSTORE PUSH1 0x24 PUSH1 0x0 REVERT JUMPDEST PUSH2 0x9BE DUP3 PUSH2 0x8C9 JUMP JUMPDEST DUP2 ADD DUP2 DUP2 LT PUSH8 0xFFFFFFFFFFFFFFFF DUP3 GT OR ISZERO PUSH2 0x9DD JUMPI PUSH2 0x9DC PUSH2 0x986 JUMP JUMPDEST JUMPDEST DUP1 PUSH1 0x40 MSTORE POP POP POP JUMP JUMPDEST PUSH1 0x0 PUSH2 0x9F0 PUSH2 0x718 JUMP JUMPDEST SWAP1 POP PUSH2 0x9FC DUP3 DUP3 PUSH2 0x9B5 JUMP JUMPDEST SWAP2 SWAP1 POP JUMP JUMPDEST PUSH1 0x0 PUSH8 0xFFFFFFFFFFFFFFFF DUP3 GT ISZERO PUSH2 0xA1C JUMPI PUSH2 0xA1B PUSH2 0x986 JUMP JUMPDEST JUMPDEST PUSH2 0xA25 DUP3 PUSH2 0x8C9 JUMP JUMPDEST SWAP1 POP PUSH1 0x20 DUP2 ADD SWAP1 POP SWAP2 SWAP1 POP JUMP JUMPDEST DUP3 DUP2 DUP4 CALLDATACOPY PUSH1 0x0 DUP4 DUP4 ADD MSTORE POP POP POP JUMP JUMPDEST PUSH1 0x0 PUSH2 0xA54 PUSH2 0xA4F DUP5 PUSH2 0xA01 JUMP JUMPDEST PUSH2 0x9E6 JUMP JUMPDEST SWAP1 POP DUP3 DUP2 MSTORE PUSH1 0x20 DUP2 ADD DUP5 DUP5 DUP5 ADD GT ISZERO PUSH2 0xA70 JUMPI PUSH2 0xA6F PUSH2 0x981 JUMP JUMPDEST JUMPDEST PUSH2 0xA7B DUP5 DUP3 DUP6 PUSH2 0xA32 JUMP JUMPDEST POP SWAP4 SWAP3 POP POP POP JUMP JUMPDEST PUSH1 0x0 DUP3 PUSH1 0x1F DUP4 ADD SLT PUSH2 0xA98 JUMPI PUSH2 0xA97 PUSH2 0x97C JUMP JUMPDEST JUMPDEST DUP2 CALLDATALOAD PUSH2 0xAA8 DUP5 DUP3 PUSH1 0x20 DUP7 ADD PUSH2 0xA41 JUMP JUMPDEST SWAP2 POP POP SWAP3 SWAP2 POP POP JUMP JUMPDEST PUSH1 0x0 DUP1 PUSH1 0x0 PUSH1 0x60 DUP5 DUP7 SUB SLT ISZERO PUSH2 0xACA JUMPI PUSH2 0xAC9 PUSH2 0x722 JUMP JUMPDEST JUMPDEST PUSH1 0x0 DUP5 ADD CALLDATALOAD PUSH8 0xFFFFFFFFFFFFFFFF DUP2 GT ISZERO PUSH2 0xAE8 JUMPI PUSH2 0xAE7 PUSH2 0x727 JUMP JUMPDEST JUMPDEST PUSH2 0xAF4 DUP7 DUP3 DUP8 ADD PUSH2 0xA83 JUMP JUMPDEST SWAP4 POP POP PUSH1 0x20 PUSH2 0xB05 DUP7 DUP3 DUP8 ADD PUSH2 0x74D JUMP JUMPDEST SWAP3 POP POP PUSH1 0x40 PUSH2 0xB16 DUP7 DUP3 DUP8 ADD PUSH2 0x7D8 JUMP JUMPDEST SWAP2 POP POP SWAP3 POP SWAP3 POP SWAP3 JUMP JUMPDEST PUSH1 0x0 PUSH1 0x20 DUP3 ADD SWAP1 POP PUSH2 0xB35 PUSH1 0x0 DUP4 ADD DUP5 PUSH2 0x913 JUMP JUMPDEST SWAP3 SWAP2 POP POP JUMP JUMPDEST PUSH32 0x4E487B7100000000000000000000000000000000000000000000000000000000 PUSH1 0x0 MSTORE PUSH1 0x12 PUSH1 0x4 MSTORE PUSH1 0x24 PUSH1 0x0 REVERT JUMPDEST PUSH32 0x4E487B7100000000000000000000000000000000000000000000000000000000 PUSH1 0x0 MSTORE PUSH1 0x11 PUSH1 0x4 MSTORE PUSH1 0x24 PUSH1 0x0 REVERT JUMPDEST PUSH1 0x0 PUSH2 0xBA4 DUP3 PUSH2 0x72C JUMP JUMPDEST SWAP2 POP PUSH2 0xBAF DUP4 PUSH2 0x72C JUMP JUMPDEST SWAP3 POP DUP3 PUSH2 0xBBF JUMPI PUSH2 0xBBE PUSH2 0xB3B JUMP JUMPDEST JUMPDEST DUP3 DUP3 DIV SWAP1 POP SWAP3 SWAP2 POP POP JUMP JUMPDEST PUSH32 0x4E487B7100000000000000000000000000000000000000000000000000000000 PUSH1 0x0 MSTORE PUSH1 0x22 PUSH1 0x4 MSTORE PUSH1 0x24 PUSH1 0x0 REVERT JUMPDEST PUSH1 0x0 PUSH1 0x2 DUP3 DIV SWAP1 POP PUSH1 0x1 DUP3 AND DUP1 PUSH2 0xC11 JUMPI PUSH1 0x7F DUP3 AND SWAP2 POP JUMPDEST PUSH1 0x20 DUP3 LT DUP2 SUB PUSH2 0xC24 JUMPI PUSH2 0xC23 PUSH2 0xBCA JUMP JUMPDEST JUMPDEST POP SWAP2 SWAP1 POP JUMP JUMPDEST PUSH1 0x0 PUSH2 0xC35 DUP3 PUSH2 0x72C JUMP JUMPDEST SWAP2 POP PUSH32 0xFFFFFFFFFFFFFFFFFFFFFFFFFFFFFFFFFFFFFFFFFFFFFFFFFFFFFFFFFFFFFFFF DUP3 SUB PUSH2 0xC67 JUMPI PUSH2 0xC66 PUSH2 0xB6A JUMP JUMPDEST JUMPDEST PUSH1 0x1 DUP3 ADD SWAP1 POP SWAP2 SWAP1 POP JUMP JUMPDEST PUSH1 0x0 DUP2 SWAP1 POP DUP2 PUSH1 0x0 MSTORE PUSH1 0x20 PUSH1 0x0 KECCAK256 SWAP1 POP SWAP2 SWAP1 POP JUMP JUMPDEST PUSH1 0x0 PUSH1 0x20 PUSH1 0x1F DUP4 ADD DIV SWAP1 POP SWAP2 SWAP1 POP JUMP JUMPDEST PUSH1 0x0 DUP3 DUP3 SHL SWAP1 POP SWAP3 SWAP2 POP POP JUMP JUMPDEST PUSH1 0x0 PUSH1 0x8 DUP4 MUL PUSH2 0xCD4 PUSH32 0xFFFFFFFFFFFFFFFFFFFFFFFFFFFFFFFFFFFFFFFFFFFFFFFFFFFFFFFFFFFFFFFF DUP3 PUSH2 0xC97 JUMP JUMPDEST PUSH2 0xCDE DUP7 DUP4 PUSH2 0xC97 JUMP JUMPDEST SWAP6 POP DUP1 NOT DUP5 AND SWAP4 POP DUP1 DUP7 AND DUP5 OR SWAP3 POP POP POP SWAP4 SWAP3 POP POP POP JUMP JUMPDEST PUSH1 0x0 DUP2 SWAP1 POP SWAP2 SWAP1 POP JUMP JUMPDEST PUSH1 0x0 PUSH2 0xD1B PUSH2 0xD16 PUSH2 0xD11 DUP5 PUSH2 0x72C JUMP JUMPDEST PUSH2 0xCF6 JUMP JUMPDEST PUSH2 0x72C JUMP JUMPDEST SWAP1 POP SWAP2 SWAP1 POP JUMP JUMPDEST PUSH1 0x0 DUP2 SWAP1 POP SWAP2 SWAP1 POP JUMP JUMPDEST PUSH2 0xD35 DUP4 PUSH2 0xD00 JUMP JUMPDEST PUSH2 0xD49 PUSH2 0xD41 DUP3 PUSH2 0xD22 JUMP JUMPDEST DUP5 DUP5 SLOAD PUSH2 0xCA4 JUMP JUMPDEST DUP3 SSTORE POP POP POP POP JUMP JUMPDEST PUSH1 0x0 SWAP1 JUMP JUMPDEST PUSH2 0xD5E PUSH2 0xD51 JUMP JUMPDEST PUSH2 0xD69 DUP2 DUP5 DUP5 PUSH2 0xD2C JUMP JUMPDEST POP POP POP JUMP JUMPDEST JUMPDEST DUP2 DUP2 LT ISZERO PUSH2 0xD8D JUMPI PUSH2 0xD82 PUSH1 0x0 DUP3 PUSH2 0xD56 JUMP JUMPDEST PUSH1 0x1 DUP2 ADD SWAP1 POP PUSH2 0xD6F JUMP JUMPDEST POP POP JUMP JUMPDEST PUSH1 0x1F DUP3 GT ISZERO PUSH2 0xDD2 JUMPI PUSH2 0xDA3 DUP2 PUSH2 0xC72 JUMP JUMPDEST PUSH2 0xDAC DUP5 PUSH2 0xC87 JUMP JUMPDEST DUP2 ADD PUSH1 0x20 DUP6 LT ISZERO PUSH2 0xDBB JUMPI DUP2 SWAP1 POP JUMPDEST PUSH2 0xDCF PUSH2 0xDC7 DUP6 PUSH2 0xC87 JUMP JUMPDEST DUP4 ADD DUP3 PUSH2 0xD6E JUMP JUMPDEST POP POP JUMPDEST POP POP POP JUMP JUMPDEST PUSH1 0x0 DUP3 DUP3 SHR SWAP1 POP SWAP3 SWAP2 POP POP JUMP JUMPDEST PUSH1 0x0 PUSH2 0xDF5 PUSH1 0x0 NOT DUP5 PUSH1 0x8 MUL PUSH2 0xDD7 JUMP JUMPDEST NOT DUP1 DUP4 AND SWAP2 POP POP SWAP3 SWAP2 POP POP JUMP JUMPDEST PUSH1 0x0 PUSH2 0xE0E DUP4 DUP4 PUSH2 0xDE4 JUMP JUMPDEST SWAP2 POP DUP3 PUSH1 0x2 MUL DUP3 OR SWAP1 POP SWAP3 SWAP2 POP POP JUMP JUMPDEST PUSH2 0xE27 DUP3 PUSH2 0x87A JUMP JUMPDEST PUSH8 0xFFFFFFFFFFFFFFFF DUP2 GT ISZERO PUSH2 0xE40 JUMPI PUSH2 0xE3F PUSH2 0x986 JUMP JUMPDEST JUMPDEST PUSH2 0xE4A DUP3 SLOAD PUSH2 0xBF9 JUMP JUMPDEST PUSH2 0xE55 DUP3 DUP3 DUP6 PUSH2 0xD91 JUMP JUMPDEST PUSH1 0x0 PUSH1 0x20 SWAP1 POP PUSH1 0x1F DUP4 GT PUSH1 0x1 DUP2 EQ PUSH2 0xE88 JUMPI PUSH1 0x0 DUP5 ISZERO PUSH2 0xE76 JUMPI DUP3 DUP8 ADD MLOAD SWAP1 POP JUMPDEST PUSH2 0xE80 DUP6 DUP3 PUSH2 0xE02 JUMP JUMPDEST DUP7 SSTORE POP PUSH2 0xEE8 JUMP JUMPDEST PUSH1 0x1F NOT DUP5 AND PUSH2 0xE96 DUP7 PUSH2 0xC72 JUMP JUMPDEST PUSH1 0x0 JUMPDEST DUP3 DUP2 LT ISZERO PUSH2 0xEBE JUMPI DUP5 DUP10 ADD MLOAD DUP3 SSTORE PUSH1 0x1 DUP3 ADD SWAP2 POP PUSH1 0x20 DUP6 ADD SWAP5 POP PUSH1 0x20 DUP2 ADD SWAP1 POP PUSH2 0xE99 JUMP JUMPDEST DUP7 DUP4 LT ISZERO PUSH2 0xEDB JUMPI DUP5 DUP10 ADD MLOAD PUSH2 0xED7 PUSH1 0x1F DUP10 AND DUP3 PUSH2 0xDE4 JUMP JUMPDEST DUP4 SSTORE POP JUMPDEST PUSH1 0x1 PUSH1 0x2 DUP9 MUL ADD DUP9 SSTORE POP POP POP JUMPDEST POP POP POP POP POP POP JUMP INVALID LOG2 PUSH5 0x6970667358 0x22 SLT KECCAK256 0xC CREATE 0x5C PUSH23 0x55DE0EEBD173BDCFF75E4E366F8C8AD835242EB5B6D597 DUP15 PUSH1 0x32 SWAP5 STATICCALL PUSH5 0x736F6C6343 STOP ADDMOD 0xF STOP CALLER "
    },
    "gasEstimates": {
      "creation": {
        "codeDepositCost": "775600",
        "executionCost": "infinite",
        "totalCost": "infinite"
      },
      "external": {
        "approveRequest(uint256)": "infinite",
        "approvers(address)": "2868",
        "contribute()": "50999",
        "createRequest(string,uint256,address)": "infinite",
        "finalizeRequest(uint256)": "infinite",
        "manager()": "2559",
        "minimumContribution()": "2451",
        "requests(uint256)": "infinite"
      }
    },
    "methodIdentifiers": {
      "approveRequest(uint256)": "d7d1bbdb",
      "approvers(address)": "0a144391",
      "contribute()": "d7bb99ba",
      "createRequest(string,uint256,address)": "8a9cfd55",
      "finalizeRequest(uint256)": "03441006",
      "manager()": "481c6a75",
      "minimumContribution()": "937e09b1",
      "requests(uint256)": "81d12c58"
    }
  },
  "storageLayout": {
    "storage": [
      {
        "astId": 59,
        "contract": "Campaign.sol:Campaign",
        "label": "requests",
        "offset": 0,
        "slot": "0",
        "type": "t_mapping(t_uint256,t_struct(Request)54_storage)"
      },
      {
        "astId": 61,
        "contract": "Campaign.sol:Campaign",
        "label": "numRequests",
        "offset": 0,
        "slot": "1",
        "type": "t_uint256"
      },
      {
        "astId": 63,
        "contract": "Campaign.sol:Campaign",
        "label": "manager",
        "offset": 0,
        "slot": "2",
        "type": "t_address"
      },
      {
        "astId": 65,
        "contract": "Campaign.sol:Campaign",
        "label": "minimumContribution",
        "offset": 0,
        "slot": "3",
        "type": "t_uint256"
      },
      {
        "astId": 69,
        "contract": "Campaign.sol:Campaign",
        "label": "approvers",
        "offset": 0,
        "slot": "4",
        "type": "t_mapping(t_address,t_bool)"
      },
      {
        "astId": 71,
        "contract": "Campaign.sol:Campaign",
        "label": "approversCount",
        "offset": 0,
        "slot": "5",
        "type": "t_uint256"
      }
    ],
    "types": {
      "t_address": {
        "encoding": "inplace",
        "label": "address",
        "numberOfBytes": "20"
      },
      "t_bool": {
        "encoding": "inplace",
        "label": "bool",
        "numberOfBytes": "1"
      },
      "t_mapping(t_address,t_bool)": {
        "encoding": "mapping",
        "key": "t_address",
        "label": "mapping(address => bool)",
        "numberOfBytes": "32",
        "value": "t_bool"
      },
      "t_mapping(t_uint256,t_struct(Request)54_storage)": {
        "encoding": "mapping",
        "key": "t_uint256",
        "label": "mapping(uint256 => struct Campaign.Request)",
        "numberOfBytes": "32",
        "value": "t_struct(Request)54_storage"
      },
      "t_string_storage": {
        "encoding": "bytes",
        "label": "string",
        "numberOfBytes": "32"
      },
      "t_struct(Request)54_storage": {
        "encoding": "inplace",
        "label": "struct Campaign.Request",
        "members": [
          {
            "astId": 41,
            "contract": "Campaign.sol:Campaign",
            "label": "description",
            "offset": 0,
            "slot": "0",
            "type": "t_string_storage"
          },
          {
            "astId": 43,
            "contract": "Campaign.sol:Campaign",
            "label": "value",
            "offset": 0,
            "slot": "1",
            "type": "t_uint256"
          },
          {
            "astId": 45,
            "contract": "Campaign.sol:Campaign",
            "label": "receipient",
            "offset": 0,
            "slot": "2",
            "type": "t_address"
          },
          {
            "astId": 47,
            "contract": "Campaign.sol:Campaign",
            "label": "complete",
            "offset": 20,
            "slot": "2",
            "type": "t_bool"
          },
          {
            "astId": 49,
            "contract": "Campaign.sol:Campaign",
            "label": "approvalCount",
            "offset": 0,
            "slot": "3",
            "type": "t_uint256"
          },
          {
            "astId": 53,
            "contract": "Campaign.sol:Campaign",
            "label": "approvals",
            "offset": 0,
            "slot": "4",
            "type": "t_mapping(t_address,t_bool)"
          }
        ],
        "numberOfBytes": "160"
      },
      "t_uint256": {
        "encoding": "inplace",
        "label": "uint256",
        "numberOfBytes": "32"
      }
    }
  },
  "userdoc": {
    "kind": "user",
    "methods": {},
    "version": 1
  }
}